:020000041000EA
:1000000000B5324B212058609868022188439860DF
:10001000D860186158612E4B002199600221596106
:100020000121F02299502B49196001219960352056
:1000300000F044F80222904214D00621196600F024
:1000400034F8196E01211966002018661A6600F04E
:100050002CF8196E196E196E052000F02FF8012189
:100060000842F9D1002199601B49196000215960AB
:100070001A491B48016001219960EB211966A021F2
:10008000196600F012F800219960164914480160C1
:100090000121996001BC002800D000471248134993
:1000A000086003C880F30888084703B5996A0420EC
:1000B0000142FBD001200142F8D103BD02B5186610
:1000C0001866FFF7F2FF186E186E02BD00000240BE
:1000D000000000180000070000035F00212200005C
:1000E000F4000018222000A00001001008ED00E03C
:1000F00000000000000000000000000074B24E7A12
:1001000000200420F7010010CB010010CD010010E9
:10011000C9010010C9010010C9010010C901001077
:10012000C9010010C9010010C9010010CF01001061
:10013000C9010010C9010010D1010010D301001045
:10014000C1010010C1010010C1010010C101001067
:10015000C1010010C1010010C1010010C101001057
:10016000C1010010C1010010C1010010C101001047
:10017000C1010010C1010010C1010010C101001037
:10018000C1010010C1010010C1010010C101001027
:10019000C1010010C1010010C1010010C101001017
:1001A000C1010010C1010010C1010010C101001007
:1001B000C1010010C1010010C1010010C1010010F7
:1001C000EFF30580103800BE00BE00BE00BE00BECA
:1001D00000BE00BEF2EB88710853051028530510CD
:1001E0003802001090A31AE71E481F49086006C88D
:1001F00081F3088810471D480068002801D019487D
:10020000F3E70DA40ECC002902D000F012F8F9E7B4
:100210001749184A002000E001C19142FCD116495B
:100220008847164988471649884700BEFDE701C937
:1002300001C29A42FBD3704728530510E00000200A
:1002400058130020A06505100000042000000420C1
:10025000A06505100010042000100420000000001C
:10026000704700000000000008ED00E0000000D032
:1002700058130020C04E01203565001045030010C2
:100280002D650010F8B5C04606480749091A8B10BD
:10029000C90FC91810B5491003D0044B002B00D06A
:1002A000984710BD5813002058130020000000008C
:1002B000054B10B5002B03D00449054800E000BFF2
:1002C000FFF7E2FF10BDC04600000000C0CC0020D8
:1002D0008CAE01100022084B10B51A60074B1A7043
:1002E00003F000FC064B1860596000200021054B0C
:1002F0001860596010BDC0461C1E0020AC4E012085
:10030000501600205813002010B5094904001AF0B7
:1003100097FC002809D0200006491AF091FC00281B
:1003200001D0054810BD0548FCE70548FAE7C0467E
:10033000B0AE0110C0AE0110A8AE01109CAE01100D
:1003400090AE0110F0B5DE4657464E464546E0B544
:10035000E1B006F02DFA15F0D5FA002800D0ACE097
:1003600015F064FA5A4806F071FA5A495A485B4B3C
:100370005B4A15F069FA002800D092E0594806F06F
:1003800065FA594806F062FA584B186800280BD0F5
:100390003923C35CDB0707D5043015F085F8544BCF
:1003A0000100180006F0D6FA524806F04FFA5248FB
:1003B000524901F0E1FF0A2401F0C2FD01F0C6FD3F
:1003C000002801D000F03DFE6420013C03F074FAE7
:1003D000002CF1D19620C00003F06EFA484806F0D8
:1003E00035FA1A2000F066FF0D2002F09FFAD023A4
:1003F00080221B0692019A62002101220D2002F048
:1004000093F90421022000F073FE0B230A22092134
:10041000082000F0E7FF01F081FA01F0F7FA03F09D
:1004200061FB00294DD0FA220023920003F000FF67
:100430000600C8270025334CBF001AE0FA2200232B
:10044000920003F0F5FE801BB8421DD200F058FF69
:10045000C343DB17184080B2231C844200D9031C1D
:100460009CB22B1C854200D2031C05209DB203F0D8
:1004700023FA03F037FB0029E0D1FA21890003F0C9
:1004800099FE801BB842E1D3AC4241D22B1B9BB2F8
:100490003B2B01D800F0CDFD5A08A21892B2199258
:1004A0003AE0194806F0D2F90120404261B0F0BCB0
:1004B000BB46B246A946A046F0BD144806F0C6F9B0
:1004C000F2E7FA21890003F075FE0600B1E7C046A5
:1004D00048AF011060AF01106CAF01103075000023
:1004E0000400400090AF0110A8AF0110B0CC002074
:1004F000BCAF0110D8AF0110ECAF01105B070000DA
:1005000030B00110FFFF000074AF011030AF0110D8
:100510009622002392001992199A21000092BA485B
:100520002A0006F017FA00F0EBFE002801DA00F0CE
:1005300085FD04F047FAB54B2D93186003F0D2FA0D
:10054000FA220023D20080185941169017910029F1
:1005500004DA0123AE4C5B421693179403F0C2FAFF
:100560000023AC4A8018594114901591002904DAEF
:100570000123A74C5B4214931594D0231B065B68A0
:10058000A54A9B04DB0F1360219203F0ABFAA34B47
:100590009B4618605960A24B1A001D9300231360FC
:1005A000A04A13601C92A04A13601A9203F09AFAB0
:1005B0005B4618605960FFF78DFE9C4B25939C4B62
:1005C00038939C4B35939C4B22939C4B3B939C4B79
:1005D00042939C4B4B939C4B4A939C4B4D939C4B0F
:1005E00049939C4B43939C4B4C939C4B44939C4B07
:1005F0002E939C4B2A939C4B2B939C4B2C939C4B64
:1006000034939C4B23939C4B24939C4B37939C4B50
:1006100027939C4B28939C4B29935B46189303F09C
:1006200061FA169A179B121A8B41002B00DC37E1F6
:1006300003F058FA149A159B121A8B41002BEEDC2A
:1006400001D1002AEBD103F04DFA189A0300126889
:100650001D9C821A2198246805681C980068012D49
:1006600000D1D5E1002D02D1A4181D9A1460189A6A
:10067000071913605160002F00D1D3E104F09DF9F8
:100680008249061C04F03BF98246200004F095F9EB
:100690007E4904F034F9051C380004F08EF9011C81
:1006A000301C04F02CF97A4904F03DF9814600F041
:1006B00027FEC3430400DB171C40A3B29846239BCC
:1006C0001B93199B434501D8349B1B93D0231B06D6
:1006D0005B6800209B04DB0F1E9300F059FD8346EE
:1006E000012000F055FD1F90002000F057FD06008E
:1006F000012000F053FD2090002E00D16DE130006C
:1007000004F05BF9011C634804F0F9F8624904F055
:10071000F6F8624904F007F904F0BCF906000F008E
:100720002098002800D155E104F047F9011C5948F0
:1007300004F0E5F8584904F0E2F8584904F0F3F8F9
:1007400004F0A8F9229B24041B680E900F911093CB
:100750001F9B0C960D970A935B4609931A9B48467C
:100760001B68240C089304F095F906900791281C47
:1007700004F090F904900591504604F08BF91E9B0B
:10078000199E0290039132002100009324981B9B34
:1007900006F0E0F801F0DAFB00280CD0279B464574
:1007A00000D8379B4021289A4FA805F07FFE299852
:1007B0004FA901F0DBFB4A465046291C01F038FDE9
:1007C00001F0FCFB01F074FC01F0B4FC00231D9A65
:1007D00013601C9A13601A9A136003F083F9189B34
:1007E0000C4A1860596014981599002380185941D3
:1007F00014901591002900DB11E70123044C5B42A2
:10080000149315940BE7C04680B0011068320020A5
:10081000FFFFFF7F90D0030018120020A8140020D3
:10082000FC1C0020F81C002038290020AC4E0120C0
:1008300058130020501600201C1E002060130020BA
:10084000A4B00110C4B0011018AF0110A8AE01107F
:1008500010AF011090AE01109CAE0110DCB0011081
:10086000744E01207432002070320020284D012087
:1008700020AF011028AF011010B10110D0AE01104F
:10088000DCAE0110E8AE011000AF011000007A44A8
:100890000000C842002474490000A04100007042DA
:1008A000002B02D1002A00D0C2E600F029FDC3438C
:1008B000DB17184083B21B93D0231B065D6880238F
:1008C0009B011D4003F00EF9219BAE041B68040040
:1008D0000F009846F60FB34200D181E0189B1968CB
:1008E0004346611A012B00D105E1002B00D021E124
:1008F0001D9A002013685B18136001F05DFC4246EE
:10090000189B90C31A9B1A60259B1B78002B00D163
:1009100020E1002D00D062E3359B90C3219B1D6038
:1009200003F0E0F8359B1A685B68801A994100294A
:1009300000D04DE19A4B984200D949E1FD212D9D0F
:100940008905286803F0EFFF041C1B9804F035F8B4
:10095000FA21890503F0E7FF011C201C03F0CCFFFE
:10096000286004F051F8199BC01A03000E331C2BA9
:100970003FD80024201C8B4903F0D5FF041C2E9D7A
:100980008949286803F0CFFF211C03F0B5FF199BAC
:100990001B9A2860934249D92A9A1368023313603C
:1009A000E1225200934244D98049814800F0A2FDDF
:1009B00016981799FA220023D200801859411690F0
:1009C0001791002900DB33E601237A4C5B42169332
:1009D00017942DE600200021B4E6002600279FE6AC
:1009E0001A9A136802331360259B1B78002BA5D03D
:1009F00096E703F0E7FF704903F095FFFE218905B4
:100A0000041C03F0D5FF002800D122E3654CB6E7B3
:100A100080181C9A07191060189A13605160002FF3
:100A200000D02BE60025AA46A94640E600232A9AD4
:100A30001360624903F077FF011C051C604803F056
:100A400058FF002103F058FF5D49041C281C03F0E7
:100A500053FF5C49061C201C03F094FF002800D0C3
:100A6000584C5849301C03F08DFF002800D0554EDB
:100A70002B9B55491F68381C03F03EFF211C051CA9
:100A800003F080FF002800D1251C4F49381C03F0DB
:100A900030FF291C041C03F08BFF002800D12C1C04
:100AA0002C9B49491F68381C03F026FF051C011CBC
:100AB000301C03F07DFF002800D1351C4249381C52
:100AC00003F017FF291C061C03F072FF0300301C03
:100AD000002B00D1281C2B9B3C491C602C9B1860D0
:100AE00003F00DFF3949051C201C03F008FF291CE9
:100AF00000F000FD5CE71C9A012013685B1813608E
:100B000001F05AFB189B1A9A90C300231360259B8F
:100B10001B78002B32D14146259A1170229A3899C0
:100B20001360002200230A604B60359B90C3219B19
:100B30001E60F5E6404601F03FFB189B1A9A90C3F1
:100B400000231360259B1B78002BEED101222599F1
:100B50000A70E3E70122259900200A7022990B60B0
:100B60000021389B18605960002D00D1D4E6389BD5
:100B700090C3359B90C3219B1A60D1E6002DD4D140
:100B8000389B0CCB1343D0D0229803683F2BCCDC8E
:100B9000591C01603B999B00A21A5A50C5E7C046F8
:100BA00047E716008FC2F53DAE47613FAE4761BED5
:100BB000AE47613EFFFFFF7FC364AA3B00000842CF
:100BC00000001042000090410000C0400000C842F8
:100BD000412200214FA804F009F8229B1A68531EF5
:100BE00039923F2B00D90DE23B9B00209C4691009F
:100BF000012761441A0000240025984606008C460F
:100C00007F4213689F4200D91F009E4200D21E00FF
:100C100018000021043224184D416245F1D13C9066
:100C20003D91300046468F4210D003F0C6FE80460C
:100C3000380003F0C2FE011C071C404603F05FFEB3
:100C4000EB4903F0ADFE002800D0E6E129002000CA
:100C500003F016FF041C399803F0B4FE011C201C9D
:100C600003F04DFEE34903F05EFE051C399B4FACDB
:100C70009C463023270099460133984667443068E4
:100C800003F09BFE011C281C03F07CFE002800D111
:100C90009DE14346237001340436BC42EFD1399CB8
:100CA0000022A4464FAB63441A704FA8FFF72CFBF9
:100CB000210003004FAA429805F04CFE4FA8FFF711
:100CC00023FB3A904FA819F0FFFF0E2800D8BDE192
:100CD0005722582150243CAB9B183CAA521812783A
:100CE000013190463CAA5218167806393CAA52188F
:100CF000157801313CAA52181278013194463CAA69
:100D00005218177806393CAA52183CA909190978D3
:100D1000013413913E913CA9091909783CAC1E910C
:100D20004C21641824780131A1463CAC1B7864182E
:100D300024782F933CAB21009A4626944E24834678
:100D40004CA85444209182461E99139B1F91290060
:100D50001278D3449A462F9B584631959346419238
:100D60003093624633914546632349463F96409708
:100D7000329046942000BC46369337004595479202
:100D80005C465646489105E0434620934B46D44680
:100D90005F461F9330390B00591E8B4120999946AD
:100DA00030394B1E994103788944190031399846EE
:100DB000313C4B1E9941631E9C41494464183100EB
:100DC00030394B1E994109191F9C313C631E9C41CF
:100DD000037964181900303999464B1E9941339BA9
:100DE0000C19303B591E8B4119191300303B5C1E06
:100DF000A3415B18614631394C1EA141C918037AE1
:100E00009A46303B5C1EA3415B18309930394C1E2A
:100E1000A141C9182B00313B5C1EA3415B1839006E
:100E200031394C1EA141C918037B9B46303B5C1EE7
:100E3000A3415B183699994200DD3693329B01300D
:100E40003400309533923D0062461F9E20999842AF
:100E50009AD1459B469C9846479B45469C46489B55
:100E60006646994663231F93409B49469C463E989D
:100E70003F9F419A05E0434626934B46D4465F4642
:100E80001E9330390B00591E8B41269999463039F3
:100E90004B1E994123788944190031399846313ADB
:100EA0004B1E9941531E9A41494451180200303A51
:100EB000531E9A4152181E9930394B1E994123797D
:100EC00089181A00313A9946531E9A41319B51189C
:100ED000313B5A1E93415A183300303B591E8B4107
:100EE0009B186246303A511E8A41D218237A9A469C
:100EF000303B591E8B419B182F9A303A511E8A4124
:100F0000D2182B00313B591E8B419B183A00313AC5
:100F1000511E8A41D218237B9B46303B591E8B4180
:100F20009B181F9A9A4200DD1F93329B01340200E6
:100F30002F9531963D0066461E9826999C429AD17F
:100F40001F9B9A46369B1800534564DB369A130064
:100F500052455EDCC01A03F035FD0021041C03F08D
:100F600017FD002863D12449201C03F0C8FCFE2192
:100F7000890519F059FF041C369B499D534500DC37
:100F80004A9D3A9E4399300019F05AFE002835D008
:100F900030004C9919F054FE002802D1FE24499DDE
:100FA000A405201C03F076FD399E029003913A9B24
:100FB00031004FAA4498009505F0CCFC2A0031007E
:100FC000231C4FA801F084F9FFF784F9B6E44B46DF
:100FD000237001340436BC4200D050E65FE6389BF3
:100FE000219A90C3359B90C30123136098E4C046B7
:100FF000CDCCAC3F9A99993F00007041FE244A9DA8
:10100000A405CEE74B9805F021FC01235B42399300
:1010100054E653469EE7504698E7391C404603F095
:101020006BFCFC21890503F07EFC051C1EE60024F8
:10103000A2E7962292001992FFF76EFA0020FFF7BE
:101040007AFA084805F002FCFFF7C4F900244D9D28
:1010500097E70549201C03F095FC002800D189E49E
:10106000014888E4FCAF0110000080BFF0B5C6461F
:1010700000B51B4B82B01A68904206D05B6898425C
:101080002BD002B080BCB846F0BD0023984602F0D9
:1010900029FD04000D00434626002F001149D80009
:1010A0000B181A685B68B61A9F4132003B00009229
:1010B0000193002F0CD042460B4B9600F758009A34
:1010C0000137F750094B0918F2500C604D60D8E712
:1010D00096277F00BA42D4D3EDE701239846D6E79E
:1010E0001C120020301600202C2E0020342E002050
:1010F000F8B5CE46474603008146884680B50133A1
:101100001BD0204B186001F011FC4A46012393408C
:10111000D0221206936201210022484601F004FB0E
:10112000194B01220821484601F052FB02F0DAFC7B
:1011300004000D00154B1C605D60434601331DD05B
:101140004246104B40465A6001F0F0FB42460123F4
:101150009340D0221206936201210022404601F002
:10116000E3FA094B01220821404601F031FB02F06D
:10117000B9FC06000F00054B9E60DF60C0BCB9469D
:10118000B046F8BD1C1200206D1000103016002073
:10119000014B8000C05870472C2E0020014B80006E
:1011A000C0587047342E0020F8B54546DE465746F5
:1011B0004E46394B04001868E0B598460D1C0028CF
:1011C00065D003F0FAFB011C344803F098FB344966
:1011D00003F095FB8146281C03F05CFC314B324A3E
:1011E00003F047FA0F00060003F0F2FA4946051C27
:1011F00003F099FB43468146586800284AD003F023
:10120000DCFB011C254803F07AFB254903F077FB42
:10121000291C03F088FB254B00229A461B68804658
:101220009B463900224B300003F009FA03F0D0FA54
:10123000051C584603F0C1FB291C03F074FB534600
:10124000061C586803F0B9FB291C03F06CFB4B46E5
:101250002360434649466360051CA660E060404643
:1012600003F04AFBFC21890503F05DFB311C206182
:10127000281C03F041FBFC21890503F054FB60614D
:101280002000F0BCBB46B246A946A046F8BD0023EC
:101290009946A0E70020BBE7342E002000247449C3
:1012A0000000A041FB210940182D44542C2E0020A1
:1012B0000000344010B5040019F06AFA1F21200024
:1012C00001F018FA00212000002201F02DFA00217F
:1012D000200001F017FB1A2C0DD01B2C09D01C3C50
:1012E00063425C41FC2364429C43FF34034B1C700B
:1012F00010BD0124FAE70024F8E7C046A94E0120FA
:101300000D4B1B78FF2B13D00C4A1B0311684B406D
:10131000E021C9010B400A490B600421094B196007
:10132000FC3113680B42FCD050680004000C70477D
:1013300001204042FBE7C046A94E012000C0044006
:1013400000D0044000E00440F8B50400042101F09E
:10135000D1F962081F2C21D807211E48114084466C
:1013600000208B005A189200624410609060D06098
:10137000FA208000106164205060633810605B18B0
:10138000154A9B009A181549E4071268E417614052
:101390000A4013498C4663441A60F8BD0323134086
:1013A00019009A00D2180B4B00269C46A025083144
:1013B0008B00581892008000604462445651866049
:1013C000C660FA26B6000661A42064261650A3382B
:1013D0005051D4E7000005400C000540FFFF00001D
:1013E0000C100540F8B53C4F3C4E3D4D3D4C2A603D
:1013F000236031603860FFF7A7FF3068FFF7A4FF74
:101400002868FFF7A1FF2068FFF79EFF3A6853089E
:101410001F2A50D8072119408B005B1832499B00C6
:1014200059183248D2070968D21742400A40304959
:101430008C4663441A60326853081F2A47D8072134
:1014400019408B005B1828499B0059182748D20780
:101450000968D21742400A4025498C4663441A6005
:101460002A6853081F2A2ED8072119408B005B18C1
:101470001D499B0059181D48D2070968D2174240E0
:101480000A401B498C4663441A60226853081F2A8D
:1014900015D8072119408B005B1813499B0013488E
:1014A0005918D2070968D21742400A4010498C46A1
:1014B00063441A60F8BD032119400831ACE70321E9
:1014C00019400831E7E7032119400831CEE703212D
:1014D00019400831B5E7C04610330020143300200E
:1014E000183300201C3300200C000540FFFF0000D3
:1014F0000C100540F0B5D6464F4646460C1CC0B50C
:101500000021051C03F03EFA002800D0A6E0FE21D1
:10151000281C890503F04CFA002800D09BE0281C09
:10152000D54903F000FA03F09DFA002186B2201C91
:1015300003F028FA002800D0ECE0FE21201C8905E9
:1015400003F036FA002800D02AE1201CCA4903F033
:10155000EAF903F087FAC94B87B21B680021984665
:10156000281C5B08994603F023FA002800D1F3E019
:1015700043461F2B00D968E107224B461A409300CF
:101580009B18BF4A9B00944642466344D20700D44E
:1015900060E1BC4A360419684E4016408022520170
:1015A000944663441E60B84B1A6853081F2A00D93A
:1015B000EFE0072119408B005B18B1499B005918D7
:1015C000B248D2070968D21742400A40B0498C4657
:1015D00063441A60AF4B00211D68201C6E0803F0A5
:1015E000E7F9002800D0E3E00021201C03F0CAF94D
:1015F000002800D0FCE01F2D00D933E10722324043
:1016000093009B189E4A9B009A18A049ED07126808
:10161000ED1769400A409E498C4663441A609E4B10
:101620001A6853081F2A00D9DEE0072119408B00F1
:101630005B1893499B0059189448D2070968D21740
:1016400042400A4092498C4663441A60E0BCBA4664
:10165000B146A846F0BDFE20800561E78F49281CF1
:1016600003F090F9002800D097E080231B06E818CB
:10167000814903F058F903F0F5F9002186B2201CE6
:1016800003F080F9002800D00AE1FE21201C890522
:1016900003F08EF9002800D188E0FE20800576490D
:1016A00003F041F903F0DEF9744B87B29A465346D2
:1016B0001A6853081F2A00D91FE1072119408B001F
:1016C0005B186F499B0059187048D2070968D217F8
:1016D00042400A406E498C4663441A606A4B19685E
:1016E0004B081F2900D904E107221A4093009B18D8
:1016F000634A9B0094466344C90700D4F7E0614AFB
:10170000360419684E40802149018C4632406344BA
:101710001A605FE76149201C03F034F9002842D1C8
:1017200080231B06E018544903F0FDF803F09AF9F2
:10173000524B87B29A461B6800219846281C5B08CA
:10174000994603F035F9002800D011E70021281C44
:1017500003F018F90028AAD143461F2B00D985E0D1
:1017600007224B461A40414693009B18444A9B006F
:101770009A18C80745491268C01741400A404449B1
:101780008C4663441A60404B1A6853081F2A00D8DD
:101790000FE70321194008310DE7FE20800567E7B8
:1017A000FE208005D2E6FE208005BCE7201C76E7FF
:1017B0001F2D53D80722324093009B18304A9B00BC
:1017C00094466344ED0747D52E4A3F0419684F40BD
:1017D000174080225201944663441F602E4B1A68C2
:1017E00053081F2A00D820E70321194008311EE7BB
:1017F0001F2D78D80722324093009B18204A9B0067
:101800009A18E907214D1268C9174D401540204A22
:10181000944663441D60204B19684B081F2955D816
:1018200007221A4093009B18154A9B009446634474
:10183000C90756D5134A3F0419684F408021490112
:101840008C463A4063441A6000E703224B461A4034
:10185000083294E60D4A9EE60C4AB7E7032232406E
:101860000832A9E7032232400832C9E603224B4678
:101870001A40083277E7C04600007A44103300204F
:101880000C0005400000FFFF14330020FFFF0000A4
:101890000C100540183300201C330020000080BFCE
:1018A0001949201C03F06EF800282AD180231B065A
:1018B000E018164903F037F803F0D4F8144B87B258
:1018C0009A461B6898465B0899463FE703221A40F0
:1018D000083293009B180F4A9B0094466344C90743
:1018E000A8D40D4AA8E703223240083284E70A4A06
:1018F00007E703221A400832F8E6032119400831AD
:10190000DDE6FE208005D4E7000080BF00007A44B9
:10191000103300200C000540FFFF0000344B1A6814
:1019200053081F2A53D8072119408B005B183149EF
:101930009B0059183048D2070968D21742400A4024
:101940002E498C4663441A602D4B1A6853081F2A8F
:1019500049D8072119408B005B1826499B0059186C
:101960002548D2070968D21742400A4023498C46CD
:1019700063441A60234B1A6853081F2A2FD8072183
:1019800019408B005B181B499B0059181A48D20755
:101990000968D21742400A4018498C4663441A60CD
:1019A000194B1A6853081F2A15D8072119408B00B4
:1019B0005B1810499B0010485918D2070968D217C4
:1019C00042400A400D498C4663441A607047032127
:1019D00019400831A9E7032119400831E7E703213D
:1019E00019400831CDE7032119400831B3E7C0465B
:1019F000103300200C000540FFFF00000C100540D4
:101A000014330020183300201C33002030B5294C3B
:101A100089B02000284918F0FFFF0321102000F0B2
:101A200069FE0321112000F065FE00220121102033
:101A300000F07AFE00220121112000F075FE6420E2
:101A400001F03AFF1D4804F001FF00256A461C4BD7
:101A500019219381200003AA0223009519F004F8AC
:101A60006A46232319211382200004AA0095213BF2
:101A700018F0FAFFF8236A46DB0193821E2105AABB
:101A800002232000009518F0EFFF6A460D4B1E213F
:101A90001383200006AA0223009518F0E5FF022315
:101AA0006A461E2193832000009507AA18F0DCFFE8
:101AB00009B030BD48130020801A060098B101100B
:101AC0002057000001200000F0B54746CE4680B503
:101AD00087B0A82315006A46D3730F221E4CA73B7C
:101AE00006000F002000192100936A4418F0BCFF83
:101AF000012805D0002007B0C0BCB946B046F0BDF3
:101B000004AB984600234246009319212000063377
:101B100018F0B4FF0628EDD1434602229B5E994699
:101B2000434604241C5F43460020185E02F04AFF2F
:101B30000A4902F0F8FE3060484602F043FF0749C8
:101B400002F0F1FE3860200002F03CFF034902F091
:101B5000EAFE28600120CEE748130020E7D01C3AB7
:101B6000F0B5CE46474680B589B0040005AA04A961
:101B700003A8FFF7A9FF002813D103236A46D372F5
:101B80000B22A24D023B1E21280000936A4418F04C
:101B90006BFF012800D19FE009B0C0BCB946B04638
:101BA000F0BD049D039B291C281C994602F0BBFE36
:101BB000059E071C311C301C02F0B5FE011C381CB0
:101BC00002F09AFE02F06CFF80231B064B44011CBE
:101BD000180002F06BFF02F05DFF8D4A8D4B02F0A2
:101BE00048FD02F0F5FD311C2060281C02F05EFF6C
:101BF00002F050FF864A874B02F03BFD02F0E8FD01
:101C0000854B864960601868984602F08CFE8449CE
:101C1000071C484602F087FE011C381C02F06CFECF
:101C2000434618607F4B8049071C1868984602F0AD
:101C30007AFE7E498146281C02F075FE011C48464A
:101C400002F05AFE43461860794B051C7349186828
:101C5000984602F068FE72498146301C02F063FE2D
:101C6000011C484602F048FE4346061C1860291C29
:101C7000281C02F058FE311C8046301C02F053FE36
:101C8000011C404602F038FE02F00AFF80231B06CA
:101C9000011CF81802F00AFF02F0FCFE5C4A5D4BE2
:101CA00002F0E7FCA022634B120602F0BEFC02F039
:101CB0008FFD311CE060281C02F0F8FE02F0EAFE05
:101CC000534A544B02F0D5FC00225B4B02F0ADFCB2
:101CD00002F07EFD206150E7002306AE0093320043
:101CE0001E212800063318F0C9FE062800D053E74D
:101CF0003088C0BA02F066FE504902F014FE051C9E
:101D0000B088C0BA02F05EFE4C4902F00CFE4C49AD
:101D1000061C281C02F0EDFD4A4902F004FE4A4967
:101D2000051C301C02F0E8FD484902F0FCFD291CAE
:101D300002F0BCFE02F0AEFE354A364B02F099FCD2
:101D400002F046FD0021051C02F01CFE002855D1C2
:101D50006369A560191C281C984602F0CAFD3C491D
:101D6000051C02F025FE002837D13A49281C02F054
:101D700009FE002804D0281C374902F0BDFD051CCF
:101D80006E0076083549301C02F012FE002831D171
:101D90008021301CC90502F00BFE0026002833D03C
:101DA0002F4F281C02F076FE32003B0002F061FC4F
:101DB000060040460F0002F06DFE02000B003000EE
:101DC000390002F037FC02F003FD234902F094FDD4
:101DD000214902F0A5FE6061DEE61F49281C02F0E1
:101DE00088FD051C6E0076081C49301C02F0E0FDE1
:101DF0000028CDD080261B4F3606D2E7281C164976
:101E000002F07AFD051CA3E7174FCAE7481300202C
:101E1000F8C1631ADCA54C40101E0020CDCC4C3F0D
:101E2000CDCC4C3E141E00206666663FCDCCCC3D2A
:101E3000181E0020999909400000F03F0F506E3A9B
:101E4000B6F3FD3C295C6F3F0AD7A33CEC51883FB9
:101E500000003443000034C30000B4430000A0403D
:101E60000000D03F9999D93F9A99B93F110010B518
:101E7000002A06D10122054B05481A7004F0E6FC41
:101E800010BD044804F066FDFAE7C046B54E0120D7
:101E9000B0B10110D0B1011030B5050085B0080017
:101EA0000C0018F011FF1B4A83B2106800222900B1
:101EB0000392029201920092220007F07DFE002818
:101EC0000AD122002900144804F044FD0FF0E2FA80
:101ED00013F00CFD05B030BD0021104817F05AFA80
:101EE000010003280ED00E4804F034FD0D490E48C1
:101EF0000E4B0F4A13F0A8FC011E07D10D4804F049
:101F0000A5FCE3E70C4804F0A1FCDFE70B4804F074
:101F100021FDDBE7ACCC0020F4B10110A81F0020AC
:101F20000CB2011060AF01106CAF0110102700005F
:101F3000040040004CB2011094B201106CB20110C8
:101F400010B50FF0A7FA13F0D1FC10BD064B10B579
:101F50001868002805D008F057FC431E9841C0B20D
:101F600010BD0020FCE7C046ACCC002070B50400DA
:101F70000D000E48002117F00DFA0100032804D0CF
:101F800022000B4804F0E6FC70BD0A4B186808F00C
:101F90003BFC002804D029002000FFF77DFFF3E779
:101FA0002100054804F0D6FCEEE7C046A81F00203B
:101FB000CCB20110ACCC002008B3011070B5DCB07D
:101FC00006AC2000FFF7CCFDA06802F063FD049092
:101FD0000591606802F05EFD02900391069802F0A0
:101FE00059FD2B4D009001912A00A0210CA804F06E
:101FF0005DFA284E0021300017F0CCF901000328CB
:1020000025D0254A254804F0A5FC606902F042FD70
:1020100004900591206902F03DFD02900391E06873
:1020200002F038FD1E4D009001912A00A02134A835
:1020300004F03CFA0021300017F0ACF9010003284D
:1020400010D0184A154804F085FC5CB070BD164BE2
:10205000186808F0D9FB002814D00F480CA9FFF726
:102060001BFFD2E7104B186808F0CEFB002804D005
:102070000C4834A9FFF710FFE7E70A490B4804F0C2
:1020800069FCE2E70449094804F064FCBDE7C04686
:1020900038B30110A81F002074B30110CCB2011096
:1020A00088B30110B8B30110ACCC002008B3011004
:1020B00030B59DB002AD28001649FFF775F81649F6
:1020C000069802F01CFC02F0E5FC144C0090019113
:1020D0002200502108A804F0E9F90021104817F067
:1020E00059F90100032805D00E4A0F4804F032FCCC
:1020F0001DB030BD0D4B186808F086FB002804D0D9
:10210000084808A9FFF7C8FEF2E70649084804F0A6
:1021100021FCEDE70000824200007A44D0B30110B8
:10212000A81F0020E4B30110CCB20110ACCC0020F9
:1021300008B3011030B59DB002AD28001649FFF775
:1021400033F81649079802F0DAFB02F0A3FC144CAE
:10215000009001912200502108A804F0A7F9002165
:10216000104817F017F90100032805D00E4A0F4850
:1021700004F0F0FB1DB030BD0D4B186808F044FBB7
:10218000002804D0084808A9FFF786FEF2E70649B0
:10219000084804F0DFFBEDE70000824200007A44CB
:1021A000F4B30110A81F00200CB40110CCB2011030
:1021B000ACCC002008B3011070B5174E0400306895
:1021C0000D009AB0002803D008F01EFB002801D1B2
:1021D0001AB070BD23006021104A009502A804F0D7
:1021E00065F900210E4817F0D5F80100032809D140
:1021F000306808F009FB002809D00A4802A9FFF757
:102200004BFEE5E7074A084804F0A4FBE0E7054970
:10221000064804F09FFBDBE7ACCC002020B40110A3
:10222000A81F002038B40110CCB2011008B301106F
:10223000F0B5C64600B5204E80463068A6B00D1CED
:10224000141C002803D008F0DFFA002803D126B0C0
:1022500080BCB846F0BD201C02F01CFC0490059127
:10226000281C02F017FC02900391404602F012FC79
:10227000124F009001913A00802106A804F016F94F
:1022800000210F4817F086F80100032809D13068B3
:1022900008F0BAFA002809D00A4806A9FFF7FCFDA1
:1022A000D5E7084A084804F055FBD0E70549074838
:1022B00004F050FBCBE7C046ACCC002050B401107A
:1022C000A81F002080B40110CCB2011008B3011087
:1022D000F0B5C64600B5204F040038680E00150062
:1022E0009846C4B0002820D008F08EFA00281CD0F0
:1022F000002C2FD0002D2BD0404602F0CBFB0290BB
:10230000039180213300154A49000195009404A8E7
:1023100004F0CCF80021124817F03CF80100032823
:1023200007D0104A104804F015FB44B080BCB846F2
:10233000F0BD386808F068FA002804D0094804A9FC
:10234000FFF7AAFDF1E70749084804F003FBECE7B3
:10235000074DD1E7074CCDE7ACCC002098B4011075
:10236000A81F0020CCB40110CCB2011008B301109A
:10237000A8AE011090B20110F0B54646D6464F46C1
:102380000500C0B51F4882B00E00290004F0E2FA33
:102390001D4B28001900984612F0AEFF002829D0E6
:1023A0001A4B99461E6007F0BBFD194B9A46186000
:1023B000002823D0174C184B002723603C23320001
:1023C00029001648A3816760A7602761676127839A
:1023D00004F0C0FA51464A46086812884146104B3C
:1023E0000194009707F0A4FD02B0E0BCBA46B146E4
:1023F000A846F0BD0B4804F029FAF5E70A4804F0B6
:1024000025FAF1E7E8B40110201F0020241F002066
:10241000ACCC0020541F002044B5011054B501106D
:102420006D1E001008B5011024B50110D0231B0645
:102430001B68AC4A9900F0B5DE468B4651585A42AB
:1024400053412F2257464E4645465B4293439A4698
:10245000A54BE0B59C4683B000260191E2440029DB
:1024600038D0A24B99465246F30808339B009D583A
:102470000123340098460836002D22D00F21200079
:10248000294001342D09002919D04B465A469A5843
:102490000300C240203BDB171340424613420CD1DD
:1024A00007220F000240920097403A00C308904F65
:1024B0003C339B00DA51019B9847002D01D0B44278
:1024C000DCD3202ECFD103B0F0BCBB46B246A94628
:1024D000A046F0BD854E5F4600210F23B346CC08D1
:1024E00022005046083292001258002A00D1D0E053
:1024F000180010408046100913421AD05D46ED596D
:10250000A94620256D42AC468C446546ED17AC4685
:102510004D46CD40A94665464E46354001263542DA
:1025200004D14646724D3C34A4006651002800D1C7
:10253000AFE01C000440A446140A03421AD0481C11
:1025400080465846C059464681464D460800F540EB
:102550001F38C01728400125284208D165462D01A3
:10256000AC46F0086646624D3C3080004651002C77
:1025700000D18EE0180020408446100B234211D079
:102580008C1CA0465C46E4594646A1464D460C00CC
:10259000F5401E3CE4172C4001252C4200D182E07E
:1025A000002876D01C000440A446140C034210D02E
:1025B000C81C80465846C059464681464D460800CC
:1025C000F5401D38C01728400125284275D0002C41
:1025D0005FD0180020408046100D23420ED00C1D05
:1025E000A4466546414CE459EC40A1460C004D46DA
:1025F0001C3CE40F2C426AD000284AD01C00044046
:10260000A446140E034218D0481D8046454637485C
:10261000C059E840814608004D461B38C00F28428B
:1026200009D165462D05AC4640466646C008304D8A
:102630003C3080004651002C2BD0180020408446AE
:10264000120F23422AD029488C1D8146C059E040F0
:102650008046080045461A38C00F284206D1E008D7
:102660006446234D3C30240680004451002A10D09B
:102670004846C059CC1DE0408446080065461938DC
:10268000C00F284205D1E0083C30194C12078000E9
:1026900002510831202900D021E714E7002AF8D0A0
:1026A00012488146E4E765462D02AC46F4086646CA
:1026B0000F4D3C34A400665172E765462D03AC46CD
:1026C000F00866460A4D3C30800046517FE745469B
:1026D0002D04A84664464646E408054D3C34A40053
:1026E000665189E7381F0020304101400C4D012020
:1026F00000400140094A83009A1810B5146840222E
:10270000544080322240064CC000A44663441A6004
:10271000044B9C466044416010BDC04604C001406B
:1027200004D0014000400140074B8000C3181B68E3
:10273000C90092000A435A400C231340034A9446AE
:10274000604403607047C04604C0014004D00140AB
:102750008000002905D0064B9C460223604403609C
:102760007047044B9C46022360440360F8E7C04670
:1027700004E0014004F00140D0231B061B6830B583
:102780000500584243412F205B4283430E48EC082A
:102790008446072028408000814020000B4D3C30BB
:1027A00063448000A40041511B19002A05D08022F7
:1027B000920194466344196030BDC0229201944650
:1027C00063441960F8E7C0463041014000400140D1
:1027D000F8B545469846D0231B06DE461C689B4646
:1027E0002B4B57469A46A3004E469946E0B55346B2
:1027F00016004A469B5807000D00002B34D0434674
:10280000002B3FD053464A4641469950D0231B06E1
:102810001C6863425C412F220720634293431D4A98
:1028200038409446FA081100800085403C311A482F
:102830006344890092000D509B18002E0ED0802218
:1028400092019446634401210D201D6000F082F93D
:10285000F0BCBB46B246A946A046F8BDC0229201D4
:10286000944663441D60F3E74346002BD1D05346A2
:1028700041460D2099500022084900F0CDF95B46F1
:102880001C68C6E70D20054900F0C0FABAE7C0464B
:10289000381F002030410140004001402D2400102D
:1028A000D023F0B5C6461B0698461B680C4F9B000C
:1028B0001600FA5804000D0000B5104209D1290095
:1028C00014430D203200FC5000F0A6F980BCB8463D
:1028D000F0BD01F017FB43461B689B00FA58EEE77A
:1028E0000C4D012010B504000D2000F08FFAD0230C
:1028F0001B061B6802499B005A58A2435A5010BD40
:102900000C4D01208000002905D0064B9C46402339
:10291000604403607047044B9C464023604403605E
:10292000F8E7C04604E0014004F001400123D02252
:102930008340120693629361094A83009A181168D2
:102940004022514080320A400649C0008C46634410
:102950001A60054B9C460523604443607047C0469F
:1029600004C0014004D00140004001408023DB0549
:102970001868000F7047C0460FB400B5084883B010
:1029800003F064FF049B002B07D005A918000191F8
:1029900003F0B2FD034803F059FF012003F0C4FD2A
:1029A0007CB5011004B50110EFF3108072B6034A34
:1029B0001368002BFCD0BFF35F8F70472C0100D051
:1029C000BFF35F8F0022024B1A6080F310887047BC
:1029D0002C0100D070B5EFF3108C72B60D4D2B6842
:1029E000002BFCD0BFF35F8F0724CB08C618C05C58
:1029F00001230C40A3401C000440034207D11843AC
:102A00003070BFF35F8F2C608CF3108870BD1000A6
:102A1000FFF7B2FF2C0100D0F8B54746CE468846F6
:102A200080B5EFF3108C72B61C4D2C68002CFCD0D6
:102A3000BFF35F8F9A4222D807210126894602E020
:102A40000132934218D34D4637001540AF40D408A9
:102A50000119045D2742F3D110003C430C70BFF311
:102A60005F8F00220D4B1A608CF3108800280EDB5C
:102A7000C0BCB946B046F8BD01204042EFE7BFF305
:102A80005F8F00232B608CF3108801204042434667
:102A9000002BEDD00898FFF76FFFC0462C0100D047
:102AA00030B5EFF3108C72B60A4C2368002BFCD0C3
:102AB000BFF35F8F072301220B409A40CD08435D8F
:102AC00093434355BFF35F8F002323608CF310883B
:102AD00030BDC0462C0100D0044A1078431CDBB244
:102AE000172B00D9102313707047C0462412002002
:102AF00010B5064B064C82B00100009318221F232C
:102B00002000FFF789FF02B010BDC0468CB5011050
:102B1000481F00200021044B044ABFF35F8F02C30B
:102B20009342FAD17047C046000100D0800100D026
:102B3000054B064A1360064A136053609360D360E6
:102B400013615361936170478080808000E400E0EE
:102B500004E400E01F2318401E3B8340002905D0F9
:102B6000C021044A49005350136070478022014934
:102B70008B50FAE700E100E001228240034B1B6822
:102B800013405A1E9341D8B27047C04600E100E09E
:102B900001238340014A13607047C04600E200E011
:102BA000064B10309B688000C358054A00209B1AD2
:102BB0002F229A424041C0B27047C04600ED00E06B
:102BC0002812002070B50D00EFF3108672B60F4A80
:102BD0001368002BFCD0BFF35F8F0D4B10309B6848
:102BE00084001B590B4A934203D09D4201D001F04F
:102BF00089F9074B9B681D51BFF35F8FBFF35F8F50
:102C00000022024B1A6086F3108870BD240100D0A8
:102C100000ED00E0C1010010F0B557464E46DE461B
:102C20004546E0B585B0060000911700EFF3108B24
:102C300072B66A4A1368002BFCD0BFF35F8F002581
:102C4000674B5D579A46002D00DAA9E06B00654C92
:102C500001935B199B009846A146C1444B465246DE
:102C60009B7910361370604BB6009B6899590B1B0B
:102C70002F2B33D95D4B994200D0ACE0019B4246EB
:102C80009C465B4B6544AD0063535A4B0232A2181D
:102C9000043B9B1A1B05584A5B0D651913436B8057
:102CA000564B0121AB80FF23AB71009BEF71AB60F2
:102CB0004B460B4319004C4B9B689951BFF35F8FF8
:102CC000BFF35F8F0022454B1A608BF3108805B06D
:102CD000F0BCBB46B246A946A046F0BD01200A00A2
:102CE0008243D3798C46BB4231D8454613004449D0
:102CF0001B1B5B415943090D3D4B63533D4B023553
:102D00006519043B5B1B1B053B4D5B0D2B43AA4622
:102D10004D466B800425AC465546E044131F4444A1
:102D20001B1B1B055B0D1D434B46997100999D8034
:102D300099604946DF71334B01431360BBE758008C
:102D4000C01880002018C179B9422FD9020006238B
:102D5000D356002BF3DA02932B4B61460393131DDA
:102D60009A4604235B429C46E14450464B461B1A5C
:102D70001B055B0D9C46204B95719846634640466B
:102D800003439380019B5A199200039BA418A380CC
:102D9000029B1C4AA371009B2260E771A3608AE733
:102DA00001F0B0F8002553465D574FE79088029335
:102DB0004005131D9A46031561469C464046D4447F
:102DC000634604302018181AE0230005400D1B024A
:102DD00018430390C5E701F095F84FE7240100D0B0
:102DE000B24E01202812002000ED00E0C1010010C9
:102DF00000A1FFFF5812002000E0FFFF01BDFFFF10
:102E0000AAAA00000148804701BD0000F0B5DE46D7
:102E100057464E464546E0B50C0083B0EFF31088A8
:102E200072B6634A1368002BFCD0BFF35F8F614B0F
:102E300061499A68030010339F00D55901938D4270
:102E400043D0A54254D05D4EAA1B2F2A3DD85C4BDF
:102E50009B461B68994601231A009C4682404B46BC
:102E600013401F2299466346024093409A468022AF
:102E70005B4650469850BFF35F8FEFF305839B4648
:102E8000002B37D0019B5B4501D001F03BF80123BB
:102E90002A009A439068844208D176E04B005B1880
:102EA0009B00F3189868844236D01A0006215156C8
:102EB0000029F3DA844254D04B46002B27D0C0229D
:102EC00051463F4B5200995019603A4B9B68DD5177
:102ED000BFF35F8FBFF35F8F0022354B1A6088F31B
:102EE000108803B0F0BCBB46B246A946A046F0BD70
:102EF0000D00EAE72A0063469A4390688442D5D1E0
:102F000006201056130000280ADA0D0031E0802355
:102F100051462B4AD150D8E706201856002821DB0D
:102F200042001118890074188B46A1689960E179F4
:102F3000D971062161569971002924DBA488F11A00
:102F4000640524155C44091909051E4C490D2143EB
:102F5000998013181C4A9B001178F318997110700E
:102F6000AAE713005946002914D1FF31917117497E
:102F7000918015490A789A71154A9B1B5B415A4307
:102F8000120D0A7098E71149E2E706201056130067
:102F90000028C5DA0F4A1049D21A083A5002400DEB
:102FA000014399800D4952080A43DA8084E7C046FC
:102FB000240100D000ED00E0C10100102812002023
:102FC00000E100E000E0FFFFB24E012001BDFFFF85
:102FD000AAAA00006212002000F0FFFF00F8FFFF25
:102FE00010B58308040003202040FF24054AC000D8
:102FF0009446844081409B0063441A68A2430A437C
:103000001A6010BD00E400E070B501240443EFF342
:103010000581EFF3108C72B6214A1368002BFCD0A7
:10302000BFF35F8F1F4B05001F4AED1A6D416A43C6
:10303000120D1E4D8900AE6852B27658A6421CD0C1
:103040000621595691421CD012215956914222D044
:103050001E215956914220D02A21595603249142CB
:1030600010D0134B19781A708171BFF35F8F002253
:103070000B4B1A608CF3108870BDAB680D4C5C5024
:10308000EFE700246100091989005B18FF2199719D
:1030900009499980E5E70124F4E70224F2E7C046F4
:1030A000240100D028120020AAAA000000ED00E0B0
:1030B000B24E0120C101001001BDFFFF1F2110B55C
:1030C000091A0248FFF7ECFC10BDC046BE4E0120B5
:1030D00010B5084B084C82B0010000930022052374
:1030E0002000FFF799FC002801DB1F23181A02B00B
:1030F00010BDC046A8B50110BE4E012070B5040039
:103100000E001500FFF7E8FC0100200000F006F8B3
:10311000A680E580BFF35F8F70BDC046024B9C4622
:1031200061448900016070474000003470B5114C63
:10313000114DAC420FD2FF262368002B0CD0FFF7B5
:10314000CBFC01002000FFF7E9FFA680BFF35F8FF3
:103150000834AC42F0D370BDFFF7BEFC0100200084
:10316000FFF7DCFF2671BFF35F8F0834AC42E3D377
:10317000F1E7C046501300205813002010B504009A
:10318000FFF7AAFC01002000FFF7C8FFFF2323710F
:10319000BFF35F8F10BDC04610B50400FFF79CFC65
:1031A00001002000FFF7BAFFFF23A380BFF35F8F6A
:1031B00010BDC04610B504000120FFF799FC034B79
:1031C000C3189B002360BFF35F8F10BD4000003425
:1031D000034B9C46614489000160BFF35F8F7047D9
:1031E000400000340A4B1968EFF3108072B60A6889
:1031F000002AFCD0BFF35F8F1B68BFF35F8F0022F4
:103200001A6080F3108840BF002000217047C0463C
:10321000344E0120F0B5DE4657464E464546E0B5F1
:1032200087B0EFF30583032201251A4095409100F2
:103230008846A946B14B03925C58B14B1D60B14B17
:1032400004934B46B04843630823E55E002D37DA0C
:10325000A3881BB2002B00DBADE0A379002B00D0CC
:10326000EEE00823E15E002920DB4B0062695B1879
:10327000DB00D3189E68DD68731C00D10DE1A24805
:1032800001004144826A0B69B71A9B1A9F4215D309
:103290000123026A039883401A420FD09A4800F033
:1032A00019FC8D4202DCCCD18642CAD940BF07B09E
:1032B000F0BCBB46B246A946A046F0BD0E61EDE7A4
:1032C00062696B0092465B19DB009A4453469E6824
:1032D000DF6800F0FFFB8F42BADC00D1FFE0002F77
:1032E00000DAE4E05246534652691B699346049A59
:1032F000934200D1D5E052460821605E5288000416
:10330000594610439847009001910099019A0B008B
:103310001000134300D1CAE013000A00B61A9F41FF
:10332000002806DB784800F0D5FB009E019F361888
:103330004F4153469E60DF6000229A5E002A00DA09
:1033400086E7530099186069C900411802938B6899
:10335000C9689B46B94200DD7AE702D1B34200D981
:1033600076E708239C46A444059565462281A44639
:10337000029B2C0006E053009918C90041188D6883
:10338000C968AB469B18DB00C318B94206DC00D104
:10339000AFE01C000023E25E002AECDA2300644662
:1033A0009C4653461A806346059D1D80A3881BB228
:1033B000002B00DA51E72269EFF3108172B613682F
:1033C000002BFCD0BFF35F8F0123A7885B42A38053
:1033D0003FB22369BFF35F8F00221A6081F3108828
:1033E000002F00DA39E72300083322009A46666985
:1033F0007B00DB19DB00F318996850468C460824E3
:10340000115FDD68002910DB029306E0AB4240D07B
:103410000023E15E2000002906DB4C006418E40074
:103420003419E368AB42F1DD029B078000201F5E88
:103430001980002FDCDA1400A379002B00D110E7EB
:103440000023A37126000823E15E08364B1C00D13F
:103450002CE7B446656903E084464B1C00D100E7C5
:103460004B005B18DB00E8180A00E95E43881BB2DA
:10347000002BF1DA01267642F7178660C76008262E
:10348000A35F9342E9D06346198023890380228198
:10349000E3E7A3686345BBD9C6E76B1C00D0EEE643
:1034A000FCE65B4658461B69984700281BD15346EB
:1034B0001B8822692381EFF3108372B611680029FB
:1034C000FCD0BFF35F8F514662880A802269658015
:1034D000BFF35F8F0021116083F31088B8E6864246
:1034E00000D8FCE6B4E65B461A685B68009201937C
:1034F0000BE7B34500D84CE750E7C046E0CC0020CE
:103500003C700540153200100040054070B52E4C4F
:103510002569002D04D00A212C48FFF7FFFD70BD5E
:103520002B4E0321300000F0CBFAE660FFF7D4FA0F
:10353000284B03229C46D02322701B061B680121C6
:103540006370254B6044A3600F238000206102203C
:10355000638063694942A18019800231198647312D
:103560001D83585218315A5275325C3999521832AB
:103570000131995218320131995218320131995260
:10358000083518329D5202311832995218320131E1
:103590009952183201319952183201319952183228
:1035A000013199521832013199520C4B0C49DC60AF
:1035B00001303562FFF706FB01210320FFF7CAFA4D
:1035C000084B1D60A7E7C04670120020344E012052
:1035D0000040054040000034FFFF1000E0CC002018
:1035E0001532001038600540004870477012002006
:1035F000F8B51F0008AB1B7804001600002B08D19B
:1036000000F070FA32003B00121A8B41002B00DAF6
:1036100052E02269EFF3108072B61368002BFCD0E1
:10362000BFF35F8F0223E15E63694A005218D20044
:103630009B182269002936DB1D886580BFF35F8FE8
:103640000025156080F31088069A9E60DF601A617D
:10365000079A5A615A8801325204520C101C002AEF
:103660001FD082B25880080410432669EFF31087F8
:1036700072B63268002AFCD0BFF35F8FA2881A802E
:10368000A1802369BFF35F8F00221A6087F310883F
:103690000A4923788C4601329A40E36863441A60F1
:1036A000F8BD0120DDE7BFF35F8F0023136080F3D7
:1036B000108801204042F3E70020F1E73C200000A1
:1036C00070B501000469EFF3108C72B62068002811
:1036D000FCD0BFF35F8F02200D5E4C69680040197B
:1036E000C00024180869002D36DB26884E80BFF301
:1036F0005F8F002606608CF31088E360638804986F
:10370000013320615B0405985B0CA26060611A1CA8
:10371000002B1FD093B22804628018430A69EFF38C
:10372000108C72B61368002BFCD0BFF35F8F8B88B0
:1037300023808D800B69BFF35F8F00221A608CF3AA
:1037400010880B7801329A40CB6808498C46634454
:103750001A6070BD0122DDE7BFF35F8F00230360B5
:103760008CF3108801204042F3E7C0463C20000063
:1037700010B543890A1493421ADD53009B1842691D
:10378000DB00D3180469EFF3108C72B62268002AAC
:10379000FCD0BFF35F8F5A88090494B2090C8A42A7
:1037A00008D00369BFF35F8F00221A608CF3108882
:1037B000002010BD8022120214435C8001230269A4
:1037C0008371BFF35F8F002111608CF3108804496F
:1037D00002788C469340C268012062441360E8E797
:1037E0003C20000040787047F0B506000F0006242A
:1037F0006442E517C646A4197D4100B582B08D42EA
:1038000014D811D000F06EF922002B00121A8B414F
:10381000002B15DC002B44D03000390000F06CF98F
:1038200002B080BCB846F0BD8442EBD9002400252C
:1038300000F058F922002B00121A8B41002BE9DD11
:1038400000F050F922002B00121A8B41002B0ADBEA
:1038500000230193144B2200009314482B00FFF720
:103860002FFF0130D8D0A04629000024104A11486B
:10387000536A994204D8956A4545CDD29942CBD135
:103880000568EFF3108C72B62B68002BFCD0BFF3E9
:103890005F8F0368BFF35F8F1C608CF3108820BFBD
:1038A000E6E7002AB8D0CBE7E5310010701200201F
:1038B00000400540344E0120F0B5C64600B582B048
:1038C000040000F00FF9FA2206000F002000002388
:1038D0000021920000F0F0FF8019794104000D1ED4
:1038E00002DA01242E4D644206267642F717361975
:1038F0006F41AF4214D811D000F0F4F832003B0011
:10390000121A8B41002B15DC002B46D02000290019
:1039100000F0F2F802B080BCB846F0BDA642EBD988
:103920000026002700F0DEF832003B00121A8B411F
:10393000002BE9DD00F0D6F832003B00121A8B4173
:10394000002B0ADB00230193164B3200009316482C
:103950003B00FFF7B5FE0130D8D000233900B04658
:103960009C46124A1248536A994204D8966A4645C0
:10397000CCD29942CAD10668EFF3108772B6336889
:10398000002BFCD0BFF35F8F0368BFF35F8F6646E9
:103990001E6087F3108820BFE5E7002AB6D0C9E78C
:1039A000FFFFFF7FE531001070120020004005404E
:1039B000344E0120F0B557464E46DE464546E0B54A
:1039C00006000F0085B0EFF3058399468B46002B68
:1039D00012D0384900204B6ABB4206D38A6ADB1BEF
:1039E000591E8B41B2424041184305B0F0BCBB4662
:1039F000B246A946A046F0BD2F4B9A46DB689846D2
:103A000053461B784046039300F064F84246039BFC
:103A1000040004339B009B580D001B1A3900300032
:103A2000001BA941894510DC0DD020BF214A002090
:103A3000536A5B45D9D3926ADB1B591E8B41B24254
:103A400040411843D1E78342EFD900F04BF83200F0
:103A50003B00121A8B41002B1ADB00230193174BFA
:103A60003200009350463B00FFF72AFE011E0FDD97
:103A7000104B5A6A5A451BD39B6AB34216D3504621
:103A8000FFF776FE0B4A0020536A5B45ADD3D2E7C1
:103A9000084A0020536A5B45A7D30020926ADB1BCB
:103AA000B24240415A1E934118439EE75A45E6D11F
:103AB00020BFE4E70040054070120020E53100100F
:103AC00010B5024A0248FEF785FF10BDC4B50110CB
:103AD0004C1F00200300416A0A00986A596A8A4212
:103AE000FAD17047034B596A0A00986A596A9142A1
:103AF000FAD1704700400540064A536A9942FCD803
:103B000007D1044B02E05A6A914202D19A6A90426C
:103B1000F9D8704700400540F8B5DE464E46574696
:103B20004546E0B58B4605000A991800160000F0DE
:103B300041FB0A9B6C001F02324B64199C46A40097
:103B40006444636881469F4200D967602B1FDBB2E3
:103B50009846012B30D9C02380229B01E318120123
:103B60001A60294BAD0059599A4600291BD173019F
:103B7000E026226853401E40802342465B01E31842
:103B80001E60012A30D9802380229B01E318120194
:103B90001A6053464A4667605A51F0BCBB46B2466B
:103BA000A946A046F8BD586900F004FB0130430067
:103BB0001B18033BFDD2DAE75B46012BCBD1C023B8
:103BC00003229B01E3181A60023AA3681A42FCD050
:103BD0007301E0262268AD0053401E4080230A4A4C
:103BE0005B019246E3181E605A4621685140032249
:103BF0000A401A6001225B469A40A3681A42FCD030
:103C0000C1E7C04600800040701F0020F0B5464666
:103C10004F46D646C0B51F00344B44009C4624187E
:103C2000A4006444636888461600FF2B02D88023F2
:103C30005B006360031FDBB29A46012B30D9C023BF
:103C400080229B01E31812011A60294B8500595903
:103C5000994600291BD17301E026226853401E407B
:103C6000802352465B01E3181E60012A30D980236D
:103C700080229B01E31812011A6080235B006360BD
:103C80004B465F51E0BCBA46B146A846F0BD586904
:103C900000F090FA013043001B18033BFDD2DAE735
:103CA0004346012BCBD1C02303229B01E3181A60AA
:103CB000023AA3681A42FCD07301E026226885000C
:103CC00053401E4080230A4A5B019146E3181E6060
:103CD00042462168514003220A401A6001234246AD
:103CE0009340A2681342FCD0C1E7C0460080004068
:103CF000701F0020014B8000C0587047701F0020CB
:103D0000F8B5040021481E0017000D0000F052FA1B
:103D10000100380000F04EFA069B36041B031E43D8
:103D20002368002B20DB1A4B1A49E3185A1E9341D3
:103D30008022920194465B421B0B174A1B0363448B
:103D40001360164A13601F000A689743FBD1144B97
:103D50002560E2182123A06013602368002BFCDAA1
:103D60000823E6601360F8BD3F2322681340AB428E
:103D7000D9D1A3681B051B0D8342D4D1EE22E36881
:103D8000D2021340B342CED1EDE7C046001BB700CC
:103D90000040FDBF08C0004000E0004000F00040CF
:103DA0000430000010B580241C4BE4051C60002882
:103DB0001AD001231A4C18431A4BDC611A4C4440A8
:103DC0001C62596298628021144BC905196017481A
:103DD00017490860E021C9041960002A07D1802230
:103DE000144B12061A6010BD0E4BD861EBE753015D
:103DF0009B1A9B009A18802312015B049A4209D2F5
:103E000013000D490B60074B5A608022094BD20505
:103E10001A60E8E7094B1A00F3E7C04600B0054016
:103E2000D3C007B0008005402D3FF84FFCFF0100D4
:103E30000820014000A005407C320020FFFFFF0069
:103E40008023024A9B000B43D362704700800540E9
:103E5000002310B50100988A1B8B984710BDC046FF
:103E6000162310B50100188802331B88984710BD2F
:103E7000F8B54746CE4680B50F1E18D01423994694
:103E8000043304000025012698464B461888434613
:103E900021681B88984701C4431E9841013506409C
:103EA000AF42F2D13000C0BCB946B046F8BD0126E1
:103EB000F8E7C046002370B504000D00988A054954
:103EC0001B8B984703000020002C01DB0130A04031
:103ED0002900984755420000AA23064A1B01136097
:103EE0008D235B00D3600449044B19605368002B99
:103EF000FCDA70470040024000B0FA000060024067
:103F00007047C04610B50148FEF736FDE8B5011010
:103F100070B5074D074EB54209D20024013E761B0D
:103F2000B60808CD984723000134B342F9D170BDDB
:103F300048AE011084AE0110054B064A06491A60CE
:103F4000064A074B1A6010000B689843FBD1704774
:103F500000E00040BFCDFBFE08C00040FE7F3C00FB
:103F600000F00040044BDB6C002B03D18022034B9C
:103F7000D2021A607047C046000011504C20115008
:103F8000044A054B1A60054A1368DB018033FBD1F4
:103F90007047C046FFFFFF0100F0004008C000402E
:103FA0004022034B9A675A671A67DA667047C04621
:103FB00000F0014010B5FEF7ADFD10BDF8B5274982
:103FC000274C284D641AA6103200302E00D930221A
:103FD0002800920000F010FEBC2C3BD830202F238C
:103FE0002C196407204A801BE40F9B1B052B16D954
:103FF0003700002C02D0B300771CEA50001B3319A5
:104000009B004108EB18C900C9181A605A600833B0
:104010009942FAD1012303421CD09843C619B30038
:10402000EA50731C2F2E15D09B00EA50B31C2E2E85
:1040300010D09B00EA50F31C2D2E0BD09B00EA50B1
:10404000331D2C2E06D09B00EA50731D2B2E01D061
:104050009B00EA50054B9D60F8BDC0460001001072
:10406000C001001000000020C101001000ED00E0C0
:10407000002310B5294C82B0A367FFF72DFF012262
:10408000274B1A60636C012BFCD10322254B1A606D
:10409000224A936B012BFCD1013300930121224A68
:1040A00022480433FFF72CFE052301210093204A08
:1040B0002048FFF725FE0022022104201E4BFFF7B7
:1040C000A5FD0022012105201C4BFFF79FFD0022CA
:1040D000002107201A4BFFF799FD0022002108203C
:1040E000174BFFF793FD8023DB0000930022002194
:1040F0000920134BFFF710FD0022104B0021062072
:10410000FFF784FD0420FFF7F5FD0E4900F052F89B
:1041100001000020FFF794FE02B010BD00800040B7
:104120003CB0004030B00040002F68590080024091
:10413000008C864700C00240001BB700405973073F
:10414000006CDC0240420F0001480421014B18477B
:1041500090120020713E0010014B9B681847000030
:1041600090120020124A936F9B0815D29066D16678
:10417000002905D0FFE7FFE7FFE7516F106F704799
:1041800004B580210906C2175140002800D0C84359
:1041900016F0FAFD002104BDF0B5146E556E576F90
:1041A000166FFFF7E3FF1466556657671667F0BD95
:1041B000000000D0114A936F9B0813D2106651661D
:1041C000002905D0FFE7FFE7FFE7516F106F704749
:1041D00004B5002801D00020C04316F0D5FD002111
:1041E00004BDC046F0B5146E556E576F166FFFF7DD
:1041F000E5FF1466556657671667F0BD000000D0EE
:1042000094464A4A926F9208624601D228E0C0461C
:10421000F0B5464E346E756E776F366F00F020F84D
:104220009446424A14665566576716676246F0BD63
:1042300094463E4A926F9208624601D254E0C046CC
:10424000F0B53A4E346E756E776F366F00F04CF8FD
:104250009446364A14665566576716676246F0BD3F
:10426000002B24DB11D000293EDA00B5C9434042BF
:1042700000D1013100F038F8C943404200D101318A
:10428000DB43524200D1013300BD002AEBD10028AC
:1042900001D1002905D00020C90FC90701D1C043B1
:1042A000410800B516F058FD0022002300BD00B5FE
:1042B00000290ADBDB43524200D1013300F014F83D
:1042C000C943404200D1013100BDC943404200D141
:1042D0000131DB43524200D1013300F005F8DB43EA
:1042E000524200D1013300BD002923D1002B18D147
:1042F000002A0CD0BC460D4F38667A660021002398
:10430000FFE7FFE7FFE77A6F386F674670470028DF
:1043100001D00748010000B516F01EFD0022002361
:1043200000BD02000B00002000217047000000D0FB
:10433000FFFFFFFF002B00D0BFE0130C28D1002AA5
:10434000E7D080B4114F39667A66FFE7FFE730B4F3
:10435000040C7B6F396F1B0423433B667A66FFE7CF
:10436000FFE7FFE7C04684B27B6F3D6F1B0423432A
:104370003B667A66FFE7FFE7C04600232C042D0C5E
:104380007A6F386F00196941B0BC7047000000D0E7
:10439000F0B594460025140E01D112020835140F11
:1043A00001D112010435940F01D192000235D40FCE
:1043B00001D152000135D40B0134254F7C66254CC8
:1043C0003C660E0C93B2FFE7FFE7FFE73C6F6643E6
:1043D000360C7703BE467343DF0B5B04C01AB9414A
:1043E000130C7343DB18C91ACE086643360CB64467
:1043F00093B273431F0F1B01C01AB941130C7343CF
:104400001F0B1B05C01AB941860D8F023E43664340
:10441000360C092D24DB520A7243801A7703460AB0
:104420006643360C16235B1BDE40DF40BF19644633
:104430006643821B7046043506330100D940A8400C
:10444000C01900D30131A24206D20023F0BD000002
:10445000000000D0FFFFFFFF121B0130F3D3F1E794
:1044600009277F1BFE406446A2B27243801A00D225
:104470000139220C7243130C1204821A99410B0069
:104480007046043513370100F940A840801900D365
:104490000131002B02D1A2420AD2F0BD013000D37B
:1044A0000131121BFAD2013BF8D1A24200D2F0BD79
:1044B000013000D30131121BF7E7F0B51C0C00D01E
:1044C00080E00CB400251C0A04D11B02160E3343F5
:1044D000120208351C0B04D11B01160F33431201C5
:1044E00004359C0B04D19B00960F33439200023598
:1044F000DC0B02D192185B4101351C009718644116
:104500000134464F7C66464C3C660E0CFFE7FFE7E5
:10451000FFE7C0463C6F6643360C7703BE4697B252
:104520007743C01B00D20139C01B00D201399FB2B2
:104530007743C91BC91B170C77437E04FF0B801BF5
:10454000B941CE086643360C0C2D33DBB644120B52
:104550001F053A431B0B97B27743C01B00D20139AA
:104560009FB27743C91B170C77433E043F0C801B57
:10457000B941860D8F023E43664329277F1BFE40CB
:104580000C3D7746AF40BF1930BCA2B2ABB272430C
:104590007343801A9941220C7243130C1204801A3F
:1045A000994102000B000137001BA941F9D2781E86
:1045B0000021F0BD0C277F1BFE4077467F0BAF40EC
:1045C000FF19E0E700245D1C07D0144F7D663966B3
:1045D000FFE7FFE7FFE7FFE73C6F95B29EB2654359
:1045E0006643401BB141150C1E0C654366433604FF
:1045F0002F0C3E432D04401BB141994204D20200CE
:104600000B0020000021F0BD01D19042F7D3801AA9
:10461000994101349942F2D3F6E70000000000D03E
:10462000FFFFFFFF48404140484018B4134B5B6810
:10463000019308BD18B4114B1B68019308BD944643
:104640000F4A926F920805D2624618B40B4BDB6892
:10465000019308BD0A4AF0B5146E556E576F166F78
:104660006246FFF7F2FF064A1466556657671667FB
:10467000F0BD18B4014B9B68019308BD581600208B
:10468000000000D0FFB550404240504059404B40E0
:10469000594000E0FFB5154F4C00640D03D0BC42FB
:1046A00004D10C0314D80020090D09055C00640D29
:1046B00003D0BC4204D11C030AD800221B0D1B05E9
:1046C00001264B4009D44B4003D58B4200D1824296
:1046D000FFBD9942FCD19042FFBD0B43DB18034361
:1046E0001343F5D0C9434918FFBD0000FF07000080
:1046F00000B5FFF7CFFF804100BDC04600B5FFF712
:10470000C9FF01D9002000BD012000BD00B5FFF7A1
:10471000B9FF01D9002000BD012000BD00B5FFF7A1
:10472000B1FF804100BD012040054A00121804D8A5
:104730005A00121801D8002070470120704700006D
:104740000021002805D17047C1174840401AFAD00F
:10475000C90713B5064B1B6898470CBC441CA24004
:104760001005120B0349091B09051943114310BD1C
:10477000304D01201F04000010B54C00620D802355
:10478000D218DB00D21A5B057E2A10DD9E3A13DABE
:10479000CC170903490819435242D140640001343F
:1047A0001532202A05DAD0400843604310BD0020AE
:1047B00010BD0846604310BDC80FC018013810BDB9
:1047C00018B4024B5B6A019308BD00005816002024
:1047D00018B4024BDB6F019308BD0000581600208F
:1047E00010B50148FEF7C8F8F4B50110132370B5F1
:1047F0001D78012D19D014DD1D48FFF731FB06008F
:104800001C48FFF72DFB1C4C80223100200000F0DB
:10481000F3F9022D06D01948FFF71AFB184B186060
:1048200070BD154C174BA364F5E7174B124C236072
:104830006360A360E36023616361A361E36123625A
:104840006362A362E36223636363A363E36323643A
:104850006364A364E36423656365A365E36523661A
:104860006366A366E36623676367A367E367D9E7C5
:104870005344000053460000581600204C330000FB
:10488000304D01208D480010E147001007B560460B
:1048900001880A0A0230DF2AFAD1C9B2820804D399
:1048A000028840880004104300E00068014A50502C
:1048B000039007BD5816002051434343C9188C4646
:1048C000110C83B24B4310B4040C614392B280B21A
:1048D000504362431C041B0C001910BC59411304C3
:1048E000120CC018514161447047000048404140DB
:1048F00048400E4B5B6818470C4B1B6818470C4A26
:10490000936F9B0802D2094BDB681847F0B5146E11
:10491000556E576F166FFFF7F6FF054A146655661A
:1049200057671667F0BD014B9B681847344D01204F
:10493000000000D007B548404140484001E0C04673
:1049400007B54200120E03D0FF2A03D1420218D845
:10495000C00DC0054A00120E03D0FF2A03D14A023F
:104960000FD8C90DC9050122414005D4414001D5E8
:10497000814207BD884207BD0143491801D0C043A9
:10498000001807BD00B5FFF7DBFF804100BDC04642
:1049900000B5FFF7D5FF01D9002000BD012000BD03
:1049A00000B5FFF7C7FF01D9002000BD012000BD01
:1049B00000B5FFF7BFFF804100BD491A002807D1AD
:1049C00008467047C10FC90700D54042002817D0DC
:1049D000F44603B40B4B1B68984706BC81409E38D5
:1049E0004042803107D20B0607D04900490AC00572
:1049F0001043084360470130F8E7490A8902F5E7A8
:104A000070470000304D012041000A0E80231B0634
:104A10007E2A0BDD9E3A0BDAC1174002400818438C
:104A20005242D0404900013148437047002070474E
:104A3000C00FC01801387047C0420DD300B5400008
:104A40004008002100F00EF8002801D4404200BDCB
:104A50008020000600BD0000014BDB691847000004
:104A6000344D0120014B5B6A18470000344D012092
:104A7000014B1B6B18470000344D0120034A1047BF
:104A80000029FBD0024B5B6E18470000BB490010A9
:104A9000344D0120014BDB6F18470000344D0120DD
:104AA000014B9B6918470000344D0120014B9B6D61
:104AB00018470000344D012010B50148FDF75CFF98
:104AC00090B20110132310B510481C78FFF7C8F9F5
:104AD0000100012C0AD003DD80220D4800F08CF883
:104AE0000C48FFF7B5F90C4B186010BD084C542268
:104AF000200000F081F82200084980322368002B52
:104B000000D1216004349442F8D1E9E75346000013
:104B1000344D01204C330000304D0120B94A0010C3
:104B2000F8B5FF24CE464746C20D031CC80D2240EF
:104B300080B50440FF2A45D0002C43D0D80F8046D2
:104B4000002A09D103000020002B01D0802000069C
:104B5000C0BCB946B046F8BD181CA242F8DB80269E
:104B60005B02490236045F0A490A3743151B0E43AC
:104B7000A2422AD00120F1114042FFF71BFB1D2168
:104B800081462A000C2D00DD0C2248467B1243434F
:104B9000881A0341974001335B107343AD1AFF1A23
:104BA000002DEEDCBE4213DCBF1BBE4200DCBF1B8F
:104BB0004346002B00D07F4296213800091BFFF7A7
:104BC00057FFC5E7FF20C005C2E7B742F0DBEEE7BD
:104BD000002FEDDABF19EBD5BF19E9E70148042131
:104BE000014B1847A0120020713E0010014B1B68BA
:104BF00018470000A0120020014B5B681847000016
:104C0000A01200209A4200D2885470477047C046D4
:104C1000F8B55746DE464E464546E0B599460A9BEE
:104C200007009A460D9B884693460B9C9B073BD1F9
:104C30000C9B9C423DD21E1B0B9415000C005E4445
:104C40002A004B46013521002020B847B542F7D154
:104C5000A0460B9C002C20D0454636195346321BEB
:104C6000013C185D29004B46B847002CF6D12B00BB
:104C7000350098460D9B9B070FD55B46EC1A0C9BA5
:104C8000A3420AD9464698462A004B4631002020C6
:104C90000134B84701354445F6D32800F0BCBB4683
:104CA000B246A946A046F8BD16001500002CD3D187
:104CB000E0E716001500002CCED1EEE7F0B5454632
:104CC000DE4657464E46E0B585B09C4610AB1B7895
:104CD000149F934698460F9C129E139DBB074CD47D
:104CE000002D42D1B44248D201233B4099460E9B4D
:104CF000013B9A46302304E0524601341355A64244
:104D000001D9202CF8D14B46002B00D183E00E9B1B
:104D1000013B99463023A54205D82EE04A4601348E
:104D20001355AC4229D0202CF8D1FB060CD57B05BD
:104D300054D4A64263D0A54261D0119B102B50D011
:104D4000022B57D0202C32D1202301930E9B5A46A0
:104D50000093039763460295FFF75AFF05B0F0BC36
:104D6000BB46B246A946A046F0BD01233B4099464A
:104D700001233B422AD1B442B9D3FB061CD57B05A3
:104D8000DBD4002CD5D1119B102B5BD0119B022BB7
:104D90006BD0302301240E9A13704346002B10D1A0
:104DA0007B073ED52B260E9A631C1655CDE72300B4
:104DB000013430260E9AD654202CC5D04346002B01
:104DC000EED02D260E9A631C1655BEE74346002BE7
:104DD0002FD0013DB44200D289E798E7119B102BF8
:104DE000B2D1BB0637D5202CAED058230E9A13551E
:104DF0000134A7E7202CA7D02300013407E0631E6D
:104E0000012CC0D0119A102A31D0022AD1D16226A9
:104E10000E9AD65496E7FB06CED57B0500D488E7DC
:104E20008BE723003E0790D520260E9A01331655B6
:104E30008BE70C233B405A1E9341ED1AB44200D23B
:104E400055E764E7BB060ED478230E9A022413704C
:104E500030235370A1E7202C00D175E778230E9AF8
:104E6000135501346EE75823EFE76033EDE70E9AF0
:104E7000A61E91464E44BA0602D55822327098E7D3
:104E80007822327095E7C04610B5002800D110BDD9
:104E900001F092FCFBE7C0460B0010B5002802D0E1
:104EA00049681B68984710BDF0B55746DE464E4628
:104EB0004546E0B595B083460F00924698461E9A47
:104EC0001F9B10001900209EFFF72DFC002800D02A
:104ED000EAE11E981F990122C54B5242FFF708FCD8
:104EE000002800D014E11E981F990122C14B5242A4
:104EF000FFF714FC002800D0E9E01E981F9900225B
:104F0000BD4BFFF70BFC002800D0C8E01E981F998E
:104F10000022BA4BFFF7ECFB002800D0BFE01E9840
:104F20001F9900220023FFF7E3FB002800D0E4E0F4
:104F300000230B93229B5B0500D40626002430231C
:104F400007E0172106AA013452181355013E202C00
:104F500001D0092EF5D81E981F99FFF70DFCA84B1C
:104F6000F2009B181A685B68050008920993FFF726
:104F7000EBFB02000B001E981F99FFF756FB089AE7
:104F8000099BFFF776FB06900791FFF719FC814616
:104F9000FFF7D6FB02000B0006980799FFF745FBC9
:104FA0000022984B06900791FFF7B8FB002800D12C
:104FB0000DE101239C46E1444846FFF7C1FB020096
:104FC0000B0008980999FFF799FB002802D00023ED
:104FD00099460135002E00D1D9E006954D46B946D7
:104FE00014E006AA944617230A21634428000134DA
:104FF0001F19FFF7DFF83031397028000A21013E10
:10500000FFF7D8F8092D00D817E10500202CE8D1CA
:105010004F46069D20240CAE06AA172394466344EF
:1050200099465B46B34606930FE04B4628000A219B
:105030000134E618FFF796F83031280031700A2164
:10504000FFF790F8051E00D1E4E0202CEDD1069B7F
:105050005E469B460323229A1340012B18D1219BC5
:10506000002B15D00B9B002B00D1FDE0219B013BB9
:105070002193202B0CD93023219A07E0172006A971
:10508000013409180B55944200D3CCE0202CF5D103
:10509000229B01940393219B0096029322E0229B82
:1050A00052460493219B3900039358461E9B1F9C34
:1050B000029600930194434600F04AF90400200050
:1050C00015B0F0BCBB46B246A946A046F0BD229B37
:1050D0005B070FD403224C4B229901920391219933
:1050E000009302914346524639005846FFF790FD1F
:1050F0000400E4E70422454BEEE71E9A1F9B0020C4
:105100000021FFF792FA01231E901F910B9311E7E4
:10511000229B54469B0711D1219B042B0ED9219B26
:1051200055469C465E46043C64442A00434601358D
:1051300039002020B047A542F7D1B346344D2600B0
:105140002B1F99465B46A3461C003200E878434675
:105150003900013DA04701364D45F6D123005C469C
:105160009B46229B04349B07A9D55346219AE31AF8
:105170009A42A4D95E4615002200434639002020F9
:10518000B04753460134E31A9D42F5D897E728000B
:10519000FFF7DAFA02000B001E981F99FFF745FA95
:1051A0000022184B06900791FFF7A2FA0CAE0028D8
:1051B00000D031E7069807990022124BFFF7AEFAAC
:1051C000002800D028E7012301359D4324E7002271
:1051D000069807990B4BFFF78BFA002800D0F9E6E9
:1051E0004B46002B5CD101239C46E144F2E6C046CD
:1051F000FFFFEFFFFFFFEF7F65CDCD4165CDCDC157
:1052000088D601100000E03F5CB6011054B60110D2
:1052100064B60110069B5E469B460323229A134008
:10522000012B00D181E0202C00D131E70B9B002B1A
:1052300027D02D23335501342AE74F46069D202CD5
:1052400000D1E7E63022331907E0172006A9013420
:1052500009180A55202C00D1DCE6A342F5D12E22F4
:105260000CAE0134F254D7E60C23229A134257D0E5
:10527000219B013B2193A34200D9FCE6202C00D1C5
:1052800006E7229B5B0703D52B2333550134FFE64A
:10529000229B1B0700D4FBE6202333550134F7E69D
:1052A000DB0700D496E69EE7229B55469B0711D16B
:1052B000219B032B0ED9219B54469C465E46033D01
:1052C000654422004346013439002020B047AC42F7
:1052D000F7D1B346B9465F461C4EEC1C2A00B078A5
:1052E000434649460135B847013EA542F6D1229BC7
:1052F000BB464F469B0700D4E1E65346219AE31A8A
:105300009A4200D8DBE65E4615002200434639008B
:105310002020B04753460134E31A9D42F5D8CEE62B
:10532000219BA34200D9A6E6B2E6219B002B00D127
:1053300079E70B9B002B97D0219B013B21939C424B
:1053400000D298E6202C00D073E7A1E660B60110E9
:10535000F0B5DE4657464E464546E0B599B0814623
:105360008B4692469846229A239B10001900FFF71D
:10537000DAF9002800D0CAE0229823990122824B52
:105380005242FFF7CBF9002800D0C0E022982399C1
:1053900001227E4B5242FFF7ABF9002800D0B6E065
:1053A0002298239900220023FFF7A2F9002800D0B9
:1053B000C9E1229B239C08930994089809998023AA
:1053C000269ADB001A400D928022269C120114407E
:1053D00022000B94269C07000E001C4200D0ADE07A
:1053E0000B00034300D0D5E0002A00D00AE22200DF
:1053F00006332493022313400C930223134200D05C
:1054000002E2259B042B00D20FE2043B0B93002306
:1054100004250A930022229823990023FFF768F9B4
:10542000002800D003E25A4B269A134004930B9BAA
:105430000393249B0293089B099C00930194594673
:10544000434652464846FFF72FFD02002020269B88
:105450001F27034059424B415B421840531C08939D
:10546000594643464530C8470A9AD317D4185C407A
:10547000D30F0A936B1E0B9308AB9C460025674421
:1054800001E0202D0FD020000A21FEF793FE013508
:105490007E193031317020000A21FEF78BFE260084
:1054A0000400092EEDD8052306930B9B594605935E
:1054B000002304930A3303930A9B4846029310ABDC
:1054C0000093089A43460195FFF7F8FB0C9B002BCD
:1054D0002DD05346C41A259BA34228D94D465F467A
:1054E00081461E00534639001A19202043460134D4
:1054F000A847A642F6D8534648462599C21A013213
:105500000023914200D386E1013018180FE0269B5A
:105510000493259B0393249B0293229B239C00933B
:1055200001944346524659464846FFF7BDFC19B020
:10553000F0BCBB46B246A946A046F0BD01432BD104
:105540000B9B2200002B00D154E700230A93249BDD
:105550000A9A0024934200DD85E1229823990022D3
:105560000023FFF7C5F8002800D035E1269B084A44
:1055700002941A408023DB0013430493259B03937A
:10558000089B099CCBE7C046FFFFEF7FFFFFEFFFC3
:10559000FFF7FFFF06232493B44B70009C46400D99
:1055A0006044FFF7D1F8B24AB24BFFF762F8B24A53
:1055B000B24BFFF73FF83603B14B360B33430400D1
:1055C0000D00380019000022AE4BFFF72EF8AE4A4E
:1055D000AE4BFFF74EF802000B0020002900FFF74A
:1055E00029F8FFF7C9F80A90FFF7AEF8A84AA94BC7
:1055F00004000D00FFF73DF80022A74BFFF71AF853
:10560000FFF7BAF8A54A0600A54B20002900FFF7CE
:1056100030F8040030000D000C96FFF795F8A14A11
:10562000A14BFFF726F802000B0020002900FEF72F
:10563000FCFF02000B0006000F00FFF71AF8320013
:1056400004000D003B0030003900FEF7F3FF00229C
:105650000E900F91954B20002900FEF7F0FF0022DD
:10566000934BFEF7E7FF02000B0020002900FEF736
:10567000E6FF00228F4BFEF7DDFF02000B0020004B
:105680002900FEF7DCFF0D008021040032003B0002
:105690000020C905FEF7C9FF02000B002000290009
:1056A000FEF7C8FF02000B000E980F99FEF7C7FF28
:1056B0000022734BFEF7BEFF7F4B0C9C9C4664445C
:1056C00000222305FEF7D5FF06000F0002000B00A5
:1056D00008980999FFF70CF800280AD00A9B3000B7
:1056E000013B39000A930022714BFEF7A8FF060028
:1056F0000F000A9A330063323900C62A12D80222F8
:105700002698042510400B9A0C90002A25D1259B41
:10571000042B05D9002800D0A1E0259B043B0B9366
:10572000042541E00222269810400B9A0C90002A92
:1057300012D1259B052B76D9002872D1259B0525F2
:10574000053B0B9334E0802212069446229B08937B
:10575000239B6344099330E605250B4300D1F6E60D
:1057600008980999554A564BFEF7D0FF002808D0F3
:10577000089809990022534BFEF7BAFF002800D081
:10578000E5E6249B002B1CD00D9B002B19D0249BFD
:10579000013B2493259BAB4204D90C9B002B5AD090
:1057A00002230C9300230B930A9B002B00D131E6BC
:1057B0000898099932003B00FEF741FF08900991D3
:1057C00028E6259BAB42EDD90C9B002B43D0002350
:1057D0000B9302330C93E7E78020269B3A4A00069E
:1057E0001A40802384460294089C099D2900DB000E
:1057F00013430493259B6144220003930B00009202
:1058000001938EE60524A8E600230B930A93023346
:1058100004250C93FEE553468C46013B63441B1A5A
:1058200072E602230C930525C2E70423EDE58020F0
:10583000089E099F000639008446269A224B61443F
:10584000134004930B9B32000393249B02930B00A1
:1058500000920193F3E5259B5B1B0B93A4E70223C6
:1058600004250C93A0E79C1A013C76E601FCFFFF9F
:10587000FB799F501344D33FB3C8608B288AC63F3F
:105880000000F03F0000F83F61436F63A787D23FFD
:1058900071A379094F930A400000E03F1655B5BB4C
:1058A000B16B0240EF39FAFE422EE63F00002C4079
:1058B0000000244000001840FF0300002D431CEBB3
:1058C000E2361A3F80842E41FFF7FFFFF0B5DE4637
:1058D00057464E464546E0B5A5B01E002E9B924663
:1058E0000C93CD4ACD4B80468B461A60002900D1DF
:1058F000EAE1002330789946002800D1ECE1C84B5A
:105900004C460B93C74B454657460E930AE0631C23
:10591000984622003B005946A84744463078002864
:1059200000D187E001362528F1D108239A46043BAF
:105930009946023B9846013B00229C460D943078E4
:10594000711C0300203BDBB2102B03D80B9C9B0087
:10595000E3589F460300303B89460D9C092B3AD9FA
:10596000002398462A2800D1C1E000239A462E2819
:105970004BD00300683BDBB2122B1ED80E999B0064
:10598000CB589F4663460E001A43D8E743460E00A5
:105990001A43D4E74B460E001A43D0E710230E00FB
:1059A0001A43CCE753460E001A43C8E780235B0036
:1059B0001A43FF3B9C467078E1444E4667284FD817
:1059C0002428A4D90300253BDBB2422B9FD896495B
:1059D0009B00CB589F46002394461E0000E00131F7
:1059E000B3009B195B001E180878303E0300303B63
:1059F000092BF4D90123624689469C460023B04610
:105A00009A460E00E1442E28B3D13021802049422D
:105A10008C46C000024370784B4684446146092995
:105A200000D86CE12A2800D17AE101239C464E4639
:105A3000E1449EE7A146A846BA46CA4503D80123D9
:105A40005B425344994653464A4659460020C04754
:105A5000200025B0F0BCBB46B246A946A046F0BD2A
:105A60000300693BDBB20D930F2B00D94FE70121F7
:105A700099408C466D49894661464B4619400F91C5
:105A8000634649460B4200D028E10D9B0A2B3AD0D1
:105A9000072B00D03BE70C9B190008C98846002B58
:105AA00000D14BE121200243914614A98C461F22CC
:105AB0000F2162448C4651460D950C91A24615006B
:105AC0000F9902E020290CD0130064461C402000EE
:105AD0003730092C00D80738013168541A090F2BC8
