:020000041000EA
:1000000000B5324B212058609868022188439860DF
:10001000D860186158612E4B002199600221596106
:100020000121F02299502B49196001219960352056
:1000300000F044F80222904214D00621196600F024
:1000400034F8196E01211966002018661A6600F04E
:100050002CF8196E196E196E052000F02FF8012189
:100060000842F9D1002199601B49196000215960AB
:100070001A491B48016001219960EB211966A021F2
:10008000196600F012F800219960164914480160C1
:100090000121996001BC002800D000471248134993
:1000A000086003C880F30888084703B5996A0420EC
:1000B0000142FBD001200142F8D103BD02B5186610
:1000C0001866FFF7F2FF186E186E02BD00000240BE
:1000D000000000180000070000035F00212200005C
:1000E000F4000018222000A00001001008ED00E03C
:1000F00000000000000000000000000074B24E7A12
:1001000000200420F7010010CB010010CD010010E9
:10011000C9010010C9010010C9010010C901001077
:10012000C9010010C9010010C9010010CF01001061
:10013000C9010010C9010010D1010010D301001045
:10014000C1010010C1010010C1010010C101001067
:10015000C1010010C1010010C1010010C101001057
:10016000C1010010C1010010C1010010C101001047
:10017000C1010010C1010010C1010010C101001037
:10018000C1010010C1010010C1010010C101001027
:10019000C1010010C1010010C1010010C101001017
:1001A000C1010010C1010010C1010010C101001007
:1001B000C1010010C1010010C1010010C1010010F7
:1001C000EFF30580103800BE00BE00BE00BE00BECA
:1001D00000BE00BEF2EB8871E48A0010048B0010B0
:1001E0003802001090A31AE71E481F49086006C88D
:1001F00081F3088810471D480068002801D019487D
:10020000F3E70DA40ECC002902D000F012F8F9E7B4
:100210001749184A002000E001C19142FCD116495B
:100220008847164988471649884700BEFDE701C937
:1002300001C29A42FBD37047048B0010C00000201B
:10024000B8100020FC9A00100000042000000420D8
:10025000FC9A001000100420001004200000000090
:10026000704700000000000008ED00E0000000D032
:10027000B81000203421002001530010D5020010D6
:10028000F9520010F8B5C04606480749091A8B1004
:10029000C90FC91810B5491003D0044B002B00D06A
:1002A000984710BDB8100020B810002000000000D2
:1002B000054B10B5002B03D00449054800E000BFF2
:1002C000FFF7E2FF10BDC04600000000BC1F002089
:1002D00014830010F0B5DE4657464E464546E0B55D
:1002E000CBB005F04BF99620C00002F069FADC486B
:1002F00005F092F91A2000F05BFD0D2001F070FB73
:10030000D02380221B0692019A62002101220D2037
:1003100001F0D6FA0421022000F0EEFC0B230A22A1
:100320000921082000F0DCFD01F076F801F0ECF87E
:1003300002F05CFB002901D100F07FFCFA220023CF
:10034000920002F0F3FE0600C8270025C54CBF004E
:100350001AE0FA220023920002F0E8FE801BB84265
:100360001DD200F04BFDC343DB17184080B2231CA5
:10037000844200D9031C9CB22B1C854200D2031C72
:1003800005209DB202F01CFA02F030FB0029E0D1FA
:10039000FA21890002F08CFE801BB842E1D3AC4206
:1003A00001D200F039FC96239B0000932A00002321
:1003B0002100AD4805F0B4F996239B0020931F93CC
:1003C00000F01CFD002801DA00F048FC03F068FA98
:1003D000A64B2793186002F009FBFA220023D200F3
:1003E0008018594114901591002904DA0123A04C7A
:1003F0005B421493159402F0F9FA00239D4A801889
:10040000594112901391002904DA0123984C5B4260
:1004100012931394D0231B065B68974A9B04DB0F4F
:1004200013601E9202F0E2FA0024944B9846186082
:100430005960934B1C609946924B1C609B46924BB3
:100440009A461C6002F0D2FA4346186059608F4BFE
:100450001C6021938E4B26931C7002F0C7FA8D4BC3
:100460000022186059602B938B4B19002D930023A9
:100470000A604B60894B3093894B3193894B35939C
:10048000894B3793894B3293894B3693894B3393FE
:10049000894B3493894B2893894B2993894B2A9311
:1004A000894B2493894B2593894B2C93894B229319
:1004B000894B239302F09AFA149A159B121A8B41D6
:1004C000002B00DC14E102F091FA129A139B121A2D
:1004D0008B41002BEEDC01D1002AEBD102F086FA31
:1004E000424612680300821A1E984D460468584618
:1004F0002E680068012C00D15BE2002C01D1B618F7
:100500002E604246851913605160002D00D14BE2E8
:1005100003F0C1F97149041C03F067F91B90300026
:1005200003F0B9F96D4903F060F91C90280003F05D
:10053000B2F9011C201C03F058F9694903F069F96C
:100540001D9000F05BFCC3430400229ADB171C40A3
:100550001792209AA3B2934201D32C9B1793D023D6
:100560001B065B6800209B04DB0F189300F014FC53
:100570001990012000F010FC1A90002000F012FCED
:100580000600012000F00EFC0500002E00D1B6E1AF
:10059000300003F080F9011C524803F026F952495B
:1005A00003F023F9514903F034F903F0DBF90600B5
:1005B0000F00002D00D1A7E1280003F06CF9011C09
:1005C000484803F012F9484903F00FF9474903F08E
:1005D00020F903F0C7F9219B24041B680E900F91AA
:1005E00010931A9B0C960D970A93199B1D980993CB
:1005F00053461B68240C089303F0B4F90690079146
:100600001C9803F0AFF9049005911B9803F0AAF928
:10061000189B029003911F9A210000932398179B27
:1006200005F07EF800234A4613605A46136052468E
:10063000136002F0DBF94346186059601298139971
:1006400000230C4A8018594112901391002900DBB5
:1006500030E70123064C5B42129313942AE7C0460D
:1006600048830010FFFF000098830010941F0020B3
:10067000FFFFFF7F90D00300E00F0020C01100209B
:10068000041A0020001A00204C1B0020081A002029
:100690002E21002060130020B8100020C010002080
:1006A000BC830010CC83001024830010188300103A
:1006B0002C830010DC830010FC830010EC1F002052
:1006C00014210020A01F00209C1F002000200020DB
:1006D00038830010408300101484001000007A4416
:1006E0000000C842002474490000A041000070428C
:1006F000002B02D1002A00D0E5E600F07FFBC343C7
:10070000DB171840D0231B065C6880239B011C402C
:1007100087B202F06BF91E9B269A1B68A50412781B
:10072000ED0FAB4200D136E146463668861B012B01
:1007300000D15DE1002B00D077E14D462D68AD1969
:100740004E463560454603C555462B60002A00D00D
:100750004DE20125269B2D9E1D70219B1A600022D3
:10076000002332607360002C00D07AE22B9B03C31D
:1007700002F03CF92B9B1A685B68801A99410029AA
:1007800000D07BE1AD4B984200D977E1279DAC4981
:10079000286803F03EF8041C380003F07CF8A949EF
:1007A00003F037F8011C201C03F01CF8286003F04C
:1007B00099F81F9BC41A23001833302B00D8FCE093
:1007C000200003F06DF8A04903F023F8051C289BD6
:1007D00018681C60201A03F063F89C4903F019F8AC
:1007E000291C02F0FFFFFE218905041C03F04EF8CE
:1007F000002800D1E4E0934C299D9149286803F03A
:1008000008F8211C02F0EEFF209B28609F427ED357
:1008100000232A9A13608E4902F0FBFF011C051C7D
:100820008420C00502F0DBFF002102F0DBFF842101
:10083000041CC905281C02F0D5FF8649071C201C92
:1008400003F016F8002800D0824C8249381C03F0CF
:100850000FF8002800D07F4F249B7F491E68301C72
:1008600002F0C0FF211C051C03F002F8002800D193
:10087000251C7949301C02F0B2FF291C041C03F02E
:1008800005F8002800D12C1C259B73491D68281CE5
:1008900002F0A8FF061C011C381C02F0F7FF00281C
:1008A00000D13E1C6C49281C02F099FF311C051C2C
:1008B00002F0ECFF002800D1351C249B67491C6026
:1008C000259B281C1D6002F090FF6449051C201C1C
:1008D00002F08BFF291C00F08BFB14981599FA226B
:1008E0000023D2008018594114901591002900DB93
:1008F000E9E501235A4C5B4214931594E3E5002685
:100900000027002D00D057E60020002163E62A9939
:100910000B689A1C4E3B0A60DC2B5DD8514902F0F3
:1009200078FF051C011C504802F059FF002102F01D
:1009300059FF4E49041C281C02F051FF8121249BC1
:10094000C9051E68071C301C02F04CFF211C051C49
:1009500002F08EFF002800D1251C8121301CC90522
:1009600002F03DFF291C041C02F090FF002800D17A
:100970002C1C8121259BC9051D68281C02F032FF13
:10098000061C011C381C02F081FF002800D13E1C0F
:100990008121C90587E7534651461B6802330B6026
:1009A000002A00D1F2E6E3E600231C931B931D937B
:1009B000C7E580185A461060A3E50025002406E725
:1009C0002B49201C02F054FF00280FD1201C1D4988
:1009D00002F01FFF041C0FE7E1235B009A4200D8DE
:1009E00019E72449244800F003FB76E72048EEE7A6
:1009F0005B461B689B195E4633604346564603C3FD
:100A000000233360002A00D0DAE00123269A2D9CCF
:100A100013700023219A1360002200232260636078
:100A20002B9B03C31E9B1D60A2E64346544603C393
:100A300000232360002AE8D0F2E7C04647E716000B
:100A400085EB513FEC51383E4260653B52491D3ABF
:100A50000000E04100009041000040400000C8421A
:100A6000FFFFFF7F0000F0410000A0C10000A04197
:100A7000000080BFAE4761BEAE47613E412200210B
:100A800039A802F0B1FF219B1A68531E18923F2B20
:100A900000D9BDE0309901248C460D0093009C44A0
:100AA000644253460A00CA461797C14600200021F7
:100AB00000262700A846199313689F4200D91F00FB
:100AC0009E4200D21E001C0000250432001969411C
:100AD0006245F1D1199B2E942F954546C846D146C3
:100AE0009A4602F035FF3C00179F1790189802F0C5
:100AF000D7FE011C179802F078FE1790002C00D149
:100B000080E0300002F0C7FE061C200002F0C3FEA9
:100B1000011C041C301C02F068FE534902F0AEFEBA
:100B200000286FD0211C301C02F05CFEFC218905DE
:100B300002F06FFE1790189B39AC26009C46664465
:100B4000286802F0A8FE011C179802F091FE002808
:100B50002FD03123237001340435A642F0D1189AE6
:100B600039AB9446002263441A70319939A807F0D2
:100B7000D9FA329B002807D0359939A807F0D2FA64
:100B8000369B002800D0379B1899339839AA04F077
:100B9000C7FD0023219A1360269A137001F026FFE7
:100BA0002B9B00221860596000232D990A604B602E
:100BB000ECE53023237001340435B442C0D1CEE7D4
:100BC000002C00D0D2E52D9B0CCB134309D0219DE6
:100BD0002B683F2B05DC5C1C2C60309C9B00821A30
:100BE0001A512B9B1E9A03C300231360C0E5002CEF
:100BF00000D1BBE52D9B1E9A03C32B9B03C301238E
:100C00001360B5E51798194902F003FE179092E7B3
:100C1000349804F001FDBCE72B1B9BB23B2B13D98E
:100C20005A08A21892B220921F92009221002A0024
:100C30000F4804F075FDFFF7C3FBFA21890002F0AD
:100C400037FA0600FFF780FB9622920000922100FF
:100C50002A00074804F064FDFFF7AEFB0020FFF711
:100C6000B7FB2D9B03C3DBE6CDCCAC3F9A99993FF4
:100C700098830010F0B5C64600B51B4B82B01A68C9
:100C8000904206D05B6898422BD002B080BCB84638
:100C9000F0BD0023984601F0A9FE04000D00434674
:100CA00026002F001149D8000B181A685B68B61A85
:100CB0009F4132003B0000920193002F0CD042462E
:100CC0000B4B9600F758009A0137F750094B09185B
:100CD000F2500C604D60D8E796277F00BA42D4D31B
:100CE000EDE701239846D6E7E40F002048130020E3
:100CF000801B0020881B0020F8B5CE464746030025
:100D00008146884680B501331BD0204B186000F027
:100D100067FE4A4601239340D022120693620121C6
:100D20000022484600F0CCFD194B0122082148461C
:100D300000F0DAFD01F05AFE04000D00154B1C60B6
:100D40005D60434601331DD04246104B40465A6019
:100D500000F046FE424601239340D02212069362E1
:100D600001210022404600F0ABFD094B0122082181
:100D7000404600F0B9FD01F039FE06000F00054BBA
:100D80009E60DF60C0BCB946B046F8BDE40F0020ED
:100D9000750C001048130020014B8000C0587047AC
:100DA000801B0020014B8000C0587047881B00202A
:100DB00010B5040007F08CF81F21200000F066FD3C
:100DC00000212000002200F07BFD0021200000F027
:100DD000F3FD1A2C0DD01B2C09D01C3C63425C4146
:100DE000FC2364429C43FF34034B1C7010BD012460
:100DF000FAE70024F8E7C0462C2100200D4B1B78B1
:100E0000FF2B13D00C4A1B0311684B40E021C90192
:100E10000B400A490B600421094B1960FC3113682F
:100E20000B42FCD050680004000C70470120404287
:100E3000FBE7C0462C21002000C0044000D0044045
:100E400000E00440F8B50400042100F01FFD620832
:100E50001F2C21D807211E481140844600208B00FA
:100E60005A189200624410609060D060FA208000AE
:100E7000106164205060633810605B18154A9B0055
:100E80009A181549E4071268E41761400A401349AB
:100E90008C4663441A60F8BD0323134019009A007E
:100EA000D2180B4B00269C46A02508318B00581801
:100EB000920080006044624456518660C660FA2603
:100EC000B6000661A42064261650A3385051D4E71A
:100ED000000005400C000540FFFF00000C1005401D
:100EE000F8B53C4F3C4E3D4D3D4C2A60236031608F
:100EF0003860FFF7A7FF3068FFF7A4FF2868FFF707
:100F0000A1FF2068FFF79EFF3A6853081F2A50D8B8
:100F1000072119408B005B1832499B005918324851
:100F2000D2070968D21742400A4030498C466344D0
:100F30001A60326853081F2A47D8072119408B00CE
:100F40005B1828499B0059182748D2070968D2170F
:100F500042400A4025498C4663441A602A68530877
:100F60001F2A2ED8072119408B005B181D499B00B2
:100F700059181D48D2070968D21742400A401B4938
:100F80008C4663441A60226853081F2A15D807212B
:100F900019408B005B1813499B0013485918D2075E
:100FA0000968D21742400A4010498C4663441A60CF
:100FB000F8BD032119400831ACE70321194008317D
:100FC000E7E7032119400831CEE703211940083132
:100FD000B5E7C046A81F0020AC1F0020B01F0020AE
:100FE000B41F00200C000540FFFF00000C1005405E
:100FF000F0B5D6464F4646460C1CC0B50021051C30
:1010000002F036FC002800D0A6E0FE21281C89054D
:1010100002F03CFC002800D09BE0281CD54902F0DF
:10102000F8FB02F08DFC002186B2201C02F020FCAF
:10103000002800D0ECE0FE21201C890502F026FCEF
:10104000002800D02AE1201CCA4902F0E2FB02F08D
:1010500077FCC94B87B21B6800219846281C5B08A7
:10106000994602F013FC002800D1F3E043461F2B01
:1010700000D968E107224B461A4093009B18BF4AEB
:101080009B00944642466344D20700D460E1BC4AC8
:10109000360419684E40164080225201944663443B
:1010A0001E60B84B1A6853081F2A00D9EFE00721C9
:1010B00019408B005B18B1499B005918B248D20700
:1010C0000968D21742400A40B0498C4663441A600E
:1010D000AF4B00211D68201C6E0802F0D7FB0028D2
:1010E00000D0E3E00021201C02F0C2FB002800D069
:1010F000FCE01F2D00D933E10722324093009B18FA
:101100009E4A9B009A18A049ED071268ED176940A6
:101110000A409E498C4663441A609E4B1A685308E5
:101120001F2A00D9DEE0072119408B005B18934984
:101130009B0059189448D2070968D21742400A40C8
:1011400092498C4663441A60E0BCBA46B146A84650
:10115000F0BDFE20800561E78F49281C02F088FB66
:10116000002800D097E080231B06E818814902F090
:1011700050FB02F0E5FB002186B2201C02F078FB58
:10118000002800D00AE1FE21201C890502F07EFB28
:10119000002800D188E0FE208005764902F039FB66
:1011A00002F0CEFB744B87B29A4653461A68530836
:1011B0001F2A00D91FE1072119408B005B186F49D6
:1011C0009B0059187048D2070968D21742400A405C
:1011D0006E498C4663441A606A4B19684B081F2994
:1011E00000D904E107221A4093009B18634A9B0030
:1011F00094466344C90700D4F7E0614A360419688D
:101200004E40802149018C46324063441A605FE7BA
:101210006149201C02F02CFB002842D180231B06D0
:10122000E018544902F0F5FA02F08AFB524B87B2FB
:101230009A461B6800219846281C5B08994602F0D4
:1012400025FB002800D011E70021281C02F010FB2C
:101250000028AAD143461F2B00D985E007224B4620
:101260001A40414693009B18444A9B009A18C807AD
:1012700045491268C01741400A4044498C466344BE
:101280001A60404B1A6853081F2A00D80FE7032141
:10129000194008310DE7FE20800567E7FE20800534
:1012A000D2E6FE208005BCE7201C76E71F2D53D830
:1012B0000722324093009B18304A9B0094466344B7
:1012C000ED0747D52E4A3F0419684F40174080224A
:1012D0005201944663441F602E4B1A6853081F2A1C
:1012E00000D820E70321194008311EE71F2D78D8C8
:1012F0000722324093009B18204A9B009A18E90766
:10130000214D1268C9174D401540204A9446634448
:101310001D60204B19684B081F2955D807221A4019
:1013200093009B18154A9B0094466344C90756D501
:10133000134A3F0419684F40802149018C463A40C6
:1013400063441A6000E703224B461A40083294E6D1
:101350000D4A9EE60C4AB7E7032232400832A9E75D
:10136000032232400832C9E603224B461A400832B3
:1013700077E7C04600007A44A81F00200C00054013
:101380000000FFFFAC1F0020FFFF00000C10054015
:10139000B01F0020B41F0020000080BF1949201C8E
:1013A00002F066FA00282AD180231B06E0181649AD
:1013B00002F02FFA02F0C4FA144B87B29A461B6867
:1013C00098465B0899463FE703221A40083293008B
:1013D0009B180F4A9B0094466344C907A8D40D4A42
:1013E000A8E703223240083284E70A4A07E70322CB
:1013F0001A400832F8E6032119400831DDE6FE20E4
:101400008005D4E7000080BF00007A44A81F0020B8
:101410000C000540FFFF0000344B1A6853081F2AD8
:1014200053D8072119408B005B1831499B0059188C
:101430003048D2070968D21742400A402E498C46EC
:1014400063441A602D4B1A6853081F2A49D8072194
:1014500019408B005B1826499B0059182548D20774
:101460000968D21742400A4023498C4663441A60F7
:10147000234B1A6853081F2A2FD8072119408B00C5
:101480005B181B499B0059181A48D2070968D217E4
:1014900042400A4018498C4663441A60194B1A6846
:1014A00053081F2A15D8072119408B005B181049D3
:1014B0009B0010485918D2070968D21742400A40C9
:1014C0000D498C4663441A60704703211940083166
:1014D000A9E7032119400831E7E703211940083142
:1014E000CDE7032119400831B3E7C046A81F00200B
:1014F0000C000540FFFF00000C100540AC1F002051
:10150000B01F0020B41F002030B5294C89B0200046
:10151000284906F0D5FD0321102000F0B7F903217A
:10152000112000F0B3F900220121102000F0C8F9C9
:1015300000220121112000F0C3F9642001F040F9DC
:101540001D4804F069F800256A461C4B1921938157
:10155000200003AA0223009506F0DAFD6A46232341
:1015600019211382200004AA0095213B06F0D0FD2A
:10157000F8236A46DB0193821E2105AA022320007C
:10158000009506F0C5FD6A460D4B1E211383200011
:1015900006AA0223009506F0BBFD02236A461E211F
:1015A00093832000009507AA06F0B2FD09B030BD74
:1015B000A8100020801A06009C840010205700000C
:1015C00001200000D0231B061B68AC4A9900F0B52F
:1015D000DE468B4651585A4253412F2257464E46BB
:1015E00045465B4293439A46A54BE0B59C4683B083
:1015F00000260191E244002938D0A24B9946524678
:10160000F30808339B009D580123340098460836A0
:10161000002D22D00F212000294001342D0900295E
:1016200019D04B465A469A580300C240203BDB175C
:101630001340424613420CD107220F000240920091
:1016400097403A00C308904F3C339B00DA51019B0E
:101650009847002D01D0B442DCD3202ECFD103B067
:10166000F0BCBB46B246A946A046F0BD854E5F46DB
:1016700000210F23B346CC082200504608329200C6
:101680001258002A00D1D0E01800104080461009FE
:1016900013421AD05D46ED59A94620256D42AC464D
:1016A0008C446546ED17AC464D46CD40A94665468F
:1016B0004E4635400126354204D14646724D3C34F3
:1016C000A4006651002800D1AFE01C000440A446ED
:1016D000140A03421AD0481C80465846C059464650
:1016E00081464D460800F5401F38C01728400125A7
:1016F000284208D165462D01AC46F0086646624D89
:101700003C3080004651002C00D18EE01800204073
:101710008446100B234211D08C1CA0465C46E45931
:101720004646A1464D460C00F5401E3CE4172C40B1
:1017300001252C4200D182E0002876D01C00044014
:10174000A446140C034210D0C81C80465846C05909
:10175000464681464D460800F5401D38C0172840D2
:101760000125284275D0002C5FD01800204080460B
:10177000100D23420ED00C1DA4466546414CE45981
:10178000EC40A1460C004D461C3CE40F2C426AD0B4
:1017900000284AD01C000440A446140E034218D06E
:1017A000481D804645463748C059E84081460800F4
:1017B0004D461B38C00F284209D165462D05AC4661
:1017C00040466646C008304D3C3080004651002CF3
:1017D0002BD0180020408446120F23422AD02948DB
:1017E0008C1D8146C059E0408046080045461A38A5
:1017F000C00F284206D1E0086446234D3C30240641
:1018000080004451002A10D04846C059CC1DE04009
:101810008446080065461938C00F284205D1E00803
:101820003C30194C1207800002510831202900D0A9
:1018300021E714E7002AF8D012488146E4E765461C
:101840002D02AC46F40866460F4D3C34A4006651A8
:1018500072E765462D03AC46F00866460A4D3C30FB
:10186000800046517FE745462D04A846644646461B
:10187000E408054D3C34A400665189E70C1B0020A8
:1018800030410140F01F002000400140094A830020
:101890009A1810B514684022544080322240064CF9
:1018A000C000A44663441A60044B9C4660444160F7
:1018B00010BDC04604C0014004D0014000400140BA
:1018C000074B8000C3181B68C90092000A435A40A6
:1018D0000C231340034A9446604403607047C0469B
:1018E00004C0014004D00140F8B545469846D023D5
:1018F0001B06DE461C689B462B4B57469A46A300A8
:101900004E469946E0B5534616004A469B58070096
:101910000D00002B34D04346002B3FD053464A469F
:1019200041469950D0231B061C6863425C412F221C
:101930000720634293431D4A38409446FA08110039
:10194000800085403C311A486344890092000D5064
:101950009B18002E0ED080229201944663440121F0
:101960000D201D6000F01EF9F0BCBB46B246A94632
:10197000A046F8BDC0229201944663441D60F3E77F
:101980004346002BD1D0534641460D2099500022AA
:10199000084900F069F95B461C68C6E70D20054957
:1019A00000F05CFABAE7C0460C1B00203041014051
:1019B00000400140C51500108000002905D0064BED
:1019C0009C464023604403607047044B9C46402380
:1019D00060440360F8E7C04604E0014004F00140C1
:1019E0000123D0228340120693629361094A830047
:1019F0009A1811684022514080320A400649C000BE
:101A00008C4663441A60054B9C4605236044436042
:101A10007047C04604C0014004D00140004001406E
:101A20008023DB051868000F7047C0460FB400B56F
:101A3000084883B003F0F0FD049B002B07D005A9F4
:101A40001800019103F03EFC034803F0E5FD01207E
:101A500003F050FCB48400109884001070B5EFF3CC
:101A6000108C72B60D4D2B68002BFCD0BFF35F8F2E
:101A70000724CB08C618C05C01230C40A3401C00FF
:101A80000440034207D118433070BFF35F8F2C60CE
:101A90008CF3108870BD1000FFF7C8FF2C0100D038
:101AA000F8B54746CE46884680B5EFF3108C72B63F
:101AB0001C4D2C68002CFCD0BFF35F8F9A4222D8BB
:101AC00007210126894602E00132934218D34D4690
:101AD00037001540AF40D4080119045D2742F3D107
:101AE00010003C430C70BFF35F8F00220D4B1A6057
:101AF0008CF3108800280EDBC0BCB946B046F8BD98
:101B000001204042EFE7BFF35F8F00232B608CF38F
:101B10001088012040424346002BEDD00898FFF783
:101B200085FFC0462C0100D0044A1078431CDBB26C
:101B3000172B00D9102313707047C046EC0F0020FC
:101B400010B5064B064C82B00100009318221F23EB
:101B50002000FFF7A5FF02B010BDC046C4840010EE
:101B60001C1B00200021044B044ABFF35F8F02C3FB
:101B70009342FAD17047C046000100D0800100D0E6
:101B8000054B064A1360064A136053609360D360A6
:101B900013615361936170478080808000E400E0AE
:101BA00004E400E01F2318401E3B8340002905D0B9
:101BB000C021044A490053501360704780220149F4
:101BC0008B50FAE700E100E001228240034B1B68E2
:101BD00013405A1E9341D8B27047C04600E100E05E
:101BE00001238340014A13607047C04600E200E0D1
:101BF000064B10309B688000C358054A00209B1A92
:101C00002F229A424041C0B27047C04600ED00E02A
:101C1000F00F002070B50D00EFF3108672B60F4A7A
:101C20001368002BFCD0BFF35F8F0D4B10309B6807
:101C300084001B590B4A934203D09D4201D001F00E
:101C4000E5F8074B9B681D51BFF35F8FBFF35F8FB4
:101C50000022024B1A6086F3108870BD240100D068
:101C600000ED00E0C1010010F0B557464E46DE46DB
:101C70004546E0B585B0060000911700EFF3108BE4
:101C800072B66A4A1368002BFCD0BFF35F8F002541
:101C9000674B5D579A46002D00DAA9E06B00654C52
:101CA00001935B199B009846A146C1444B4652469E
:101CB0009B7910361370604BB6009B6899590B1BCB
:101CC0002F2B33D95D4B994200D0ACE0019B4246AB
:101CD0009C465B4B6544AD0063535A4B0232A218DD
:101CE000043B9B1A1B05584A5B0D651913436B8017
:101CF000564B0121AB80FF23AB71009BEF71AB60B2
:101D00004B460B4319004C4B9B689951BFF35F8FB7
:101D1000BFF35F8F0022454B1A608BF3108805B02C
:101D2000F0BCBB46B246A946A046F0BD01200A0061
:101D30008243D3798C46BB4231D84546130044498F
:101D40001B1B5B415943090D3D4B63533D4B023512
:101D50006519043B5B1B1B053B4D5B0D2B43AA46E2
:101D60004D466B800425AC465546E044131F444461
:101D70001B1B1B055B0D1D434B46997100999D80F4
:101D800099604946DF71334B01431360BBE758004C
:101D9000C01880002018C179B9422FD9020006234B
:101DA000D356002BF3DA02932B4B61460393131D9A
:101DB0009A4604235B429C46E14450464B461B1A1C
:101DC0001B055B0D9C46204B95719846634640462B
:101DD00003439380019B5A199200039BA418A3808C
:101DE000029B1C4AA371009B2260E771A3608AE7F3
:101DF00001F00CF8002553465D574FE79088029399
:101E00004005131D9A46031561469C464046D4443E
:101E1000634604302018181AE0230005400D1B0209
:101E200018430390C5E700F0F1FF4FE7240100D00D
:101E30002F210020F00F002000ED00E0C101001074
:101E400000A1FFFF2010002000E0FFFF01BDFFFF09
:101E5000AAAA00000148804701BD0000F0B5DE4697
:101E600057464E464546E0B50C0083B0EFF3108868
:101E700072B6634A1368002BFCD0BFF35F8F614BCF
:101E800061499A68030010339F00D55901938D4230
:101E900043D0A54254D05D4EAA1B2F2A3DD85C4B9F
:101EA0009B461B68994601231A009C4682404B467C
:101EB00013401F2299466346024093409A4680226F
:101EC0005B4650469850BFF35F8FEFF305839B4608
:101ED000002B37D0019B5B4501D000F097FF012319
:101EE0002A009A439068844208D176E04B005B1840
:101EF0009B00F3189868844236D01A000621515688
:101F00000029F3DA844254D04B46002B27D0C0225C
:101F100051463F4B5200995019603A4B9B68DD5136
:101F2000BFF35F8FBFF35F8F0022354B1A6088F3DA
:101F3000108803B0F0BCBB46B246A946A046F0BD2F
:101F40000D00EAE72A0063469A4390688442D5D19F
:101F500006201056130000280ADA0D0031E0802315
:101F600051462B4AD150D8E706201856002821DBCD
:101F700042001118890074188B46A1689960E179B4
:101F8000D971062161569971002924DBA488F11AC0
:101F9000640524155C44091909051E4C490D2143AB
:101FA000998013181C4A9B001178F31899711070CE
:101FB000AAE713005946002914D1FF31917117493E
:101FC000918015490A789A71154A9B1B5B415A43C7
:101FD000120D0A7098E71149E2E706201056130027
:101FE0000028C5DA0F4A1049D21A083A5002400DAB
:101FF000014399800D4952080A43DA8084E7C046BC
:10200000240100D000ED00E0C1010010F00F00201D
:1020100000E100E000E0FFFF2F21002001BDFFFFF5
:10202000AAAA00002A10002000F0FFFF00F8FFFF1E
:1020300070B501240443EFF30581EFF3108C72B601
:10204000214A1368002BFCD0BFF35F8F1F4B0500A4
:102050001F4AED1A6D416A43120D1E4D8900AE688C
:1020600052B27658A6421CD00621595691421CD035
:1020700012215956914222D01E215956914220D008
:102080002A2159560324914210D0134B19781A7003
:102090008171BFF35F8F00220B4B1A608CF31088A5
:1020A00070BDAB680D4C5C50EFE70024610009196E
:1020B00089005B18FF21997109499980E5E701249E
:1020C000F4E70224F2E7C046240100D0F00F00201C
:1020D000AAAA000000ED00E02F210020C10100109D
:1020E00001BDFFFF10B5084B084C82B00100009302
:1020F000002205232000FFF7D3FC002801DB1F236B
:10210000181A02B010BDC046E08400103321002030
:10211000024B9C46614489000160704740000034D6
:1021200070B5114C114DAC420FD2FF262368002B25
:102130000CD0FFF7F9FC01002000FFF7E9FFA680B3
:10214000BFF35F8F0834AC42F0D370BDFFF7ECFCF7
:1021500001002000FFF7DCFF2671BFF35F8F08341A
:10216000AC42E3D3F1E7C046B0100020B810002025
:1021700010B50400FFF7D8FC01002000FFF7C8FFEE
:10218000FF232371BFF35F8F10BDC04610B504005D
:102190000120FFF7D5FC034BC3189B002360BFF35E
:1021A0005F8F10BD40000034034B9C4661448900A2
:1021B0000160BFF35F8F7047400000340A4B19681D
:1021C000EFF3108072B60A68002AFCD0BFF35F8F6D
:1021D0001B68BFF35F8F00221A6080F3108840BF36
:1021E000002000217047C04608210020F0B5DE46DF
:1021F00057464E464546E0B587B0EFF305830322C8
:1022000001251A40954091008846A946B14B03929A
:102210005C58B14B1D60B14B04934B46B0484363CF
:102220000823E55E002D37DAA3881BB2002B00DB04
:10223000ADE0A379002B00D0EEE00823E15E002999
:1022400020DB4B0062695B18DB00D3189E68DD68F9
:10225000731C00D10DE1A24801004144826A0B6960
:10226000B71A9B1A9F4215D30123026A0398834031
:102270001A420FD09A4800F0B1FB8D4202DCCCD15B
:102280008642CAD940BF07B0F0BCBB46B246A94699
:10229000A046F0BD0E61EDE762696B0092465B19E6
:1022A000DB009A4453469E68DF6800F097FB8F423C
:1022B000BADC00D1FFE0002F00DAE4E052465346DA
:1022C00052691B699346049A934200D1D5E0524665
:1022D0000821605E528800045946104398470090D8
:1022E00001910099019A0B001000134300D1CAE03C
:1022F00013000A00B61A9F41002806DB784800F058
:102300006DFB009E019F36184F4153469E60DF6073
:1023100000229A5E002A00DA86E753009918606965
:10232000C900411802938B68C9689B46B94200DD19
:102330007AE702D1B34200D976E708239C46A44449
:10234000059565462281A446029B2C0006E05300B9
:102350009918C90041188D68C968AB469B18DB0005
:10236000C318B94206DC00D1AFE01C000023E25ED6
:10237000002AECDA230064469C4653461A806346E2
:10238000059D1D80A3881BB2002B00DA51E722694E
:10239000EFF3108172B61368002BFCD0BFF35F8F90
:1023A0000123A7885B42A3803FB22369BFF35F8FFD
:1023B00000221A6081F31088002F00DA39E7230029
:1023C000083322009A4666697B00DB19DB00F318AC
:1023D000996850468C460824115FDD68002910DB9F
:1023E000029306E0AB4240D00023E15E20000029CA
:1023F00006DB4C006418E4003419E368AB42F1DDFD
:10240000029B078000201F5E1980002FDCDA140079
:10241000A379002B00D110E70023A3712600082325
:10242000E15E08364B1C00D12CE7B446656903E039
:1024300084464B1C00D100E74B005B18DB00E8181A
:102440000A00E95E43881BB2002BF1DA01267642CE
:10245000F7178660C7600826A35F9342E9D06346FA
:102460001980238903802281E3E7A3686345BBD9F0
:10247000C6E76B1C00D0EEE6FCE65B4658461B69DF
:10248000984700281BD153461B8822692381EFF30C
:10249000108372B611680029FCD0BFF35F8F5146DC
:1024A00062880A8022696580BFF35F8F0021116016
:1024B00083F31088B8E6864200D8FCE6B4E65B46B3
:1024C0001A685B68009201930BE7B34500D84CE7AC
:1024D00050E7C046DC1F00203C700540ED21001095
:1024E0000040054070B52E4C2569002D04D00A210E
:1024F0002C48FFF70DFE70BD2B4E0321300000F07D
:1025000063FAE660FFF710FB284B03229C46D023BA
:1025100022701B061B6801216370254B6044A36079
:102520000F23800020610220638063694942A180FB
:1025300019800231198647311D83585218315A5279
:1025400075325C3999521832013199521832013181
:102550009952183201319952083518329D52023180
:102560001832995218320131995218320131995268
:102570001832013199521832013199521832013111
:1025800099520C4B0C49DC6001303562FFF742FB7D
:1025900001210320FFF706FB084B1D60A7E7C0469B
:1025A0003810002008210020004005404000003481
:1025B000FFFF1000DC1F0020ED21001038600540F7
:1025C0000048704738100020F8B51F0008AB1B7892
:1025D00004001600002B08D100F008FA32003B007E
:1025E000121A8B41002B00DA52E02269EFF31080BF
:1025F00072B61368002BFCD0BFF35F8F0223E15E3D
:1026000063694A005218D2009B182269002936DB00
:102610001D886580BFF35F8F0025156080F31088EB
:10262000069A9E60DF601A61079A5A615A880132E1
:102630005204520C101C002A1FD082B25880080489
:1026400010432669EFF3108772B63268002AFCD077
:10265000BFF35F8FA2881A80A1802369BFF35F8FC9
:1026600000221A6087F310880A4923788C460132C9
:102670009A40E36863441A60F8BD0120DDE7BFF3C8
:102680005F8F0023136080F3108801204042F3E73E
:102690000020F1E73C20000070B501000469EFF371
:1026A000108C72B620680028FCD0BFF35F8F022028
:1026B0000D5E4C6968004019C00024180869002D9F
:1026C00036DB26884E80BFF35F8F002606608CF3D2
:1026D0001088E36063880498013320615B040598E7
:1026E0005B0CA26060611A1C002B1FD093B22804FF
:1026F000628018430A69EFF3108C72B61368002BDE
:10270000FCD0BFF35F8F8B8823808D800B69BFF374
:102710005F8F00221A608CF310880B7801329A4088
:10272000CB6808498C4663441A6070BD0122DDE71E
:10273000BFF35F8F002303608CF3108801204042B9
:10274000F3E7C0463C20000010B543890A149342C9
:102750001ADD53009B184269DB00D3180469EFF3BC
:10276000108C72B62268002AFCD0BFF35F8F5A88A3
:10277000090494B2090C8A4208D00369BFF35F8F41
:1027800000221A608CF31088002010BD80221202F3
:1027900014435C80012302698371BFF35F8F0021C2
:1027A00011608CF31088044902788C469340C2680B
:1027B000012062441360E8E73C2000004078704745
:1027C000F0B5C64600B582B0040000F00FF9FA2259
:1027D00006000F00200000230021920000F0E2FF1D
:1027E0008019794104000D1E02DA01242E4D644245
:1027F00006267642F71736196F41AF4214D811D02A
:1028000000F0F4F832003B00121A8B41002B15DC6B
:10281000002B46D02000290000F0F2F802B080BC66
:10282000B846F0BDA642EBD90026002700F0DEF83E
:1028300032003B00121A8B41002BE9DD00F0D6F884
:1028400032003B00121A8B41002B0ADB002301935C
:10285000164B3200009316483B00FFF71DFF013076
:10286000D8D000233900B0469C46124A1248536A19
:10287000994204D8966A4645CCD29942CAD1066894
:10288000EFF3108772B63368002BFCD0BFF35F8F75
:102890000368BFF35F8F66461E6087F3108820BF12
:1028A000E5E7002AB6D0C9E7FFFFFF7FBD21001092
:1028B000381000200040054008210020F0B55746A0
:1028C0004E46DE464546E0B506000F0085B0EFF304
:1028D000058399468B46002B12D0384900204B6A5D
:1028E000BB4206D38A6ADB1B591E8B41B242404170
:1028F000184305B0F0BCBB46B246A946A046F0BDA1
:102900002F4B9A46DB68984653461B784046039304
:1029100000F064F84246039B040004339B009B587C
:102920000D001B1A39003000001BA941894510DC3D
:102930000DD020BF214A0020536A5B45D9D3926A4B
:10294000DB1B591E8B41B24240411843D1E7834201
:10295000EFD900F04BF832003B00121A8B41002BEC
:102960001ADB00230193174B3200009350463B00C3
:10297000FFF792FE011E0FDD104B5A6A5A451BD31A
:102980009B6AB34216D35046FFF7DEFE0B4A002087
:10299000536A5B45ADD3D2E7084A0020536A5B45D2
:1029A000A7D30020926ADB1BB24240415A1E9341DA
:1029B00018439EE75A45E6D120BFE4E700400540B2
:1029C00038100020BD21001010B5024A0248FFF760
:1029D00045F810BDFC840010201B00200300416A54
:1029E0000A00986A596A8A42FAD17047034B596AB9
:1029F0000A00986A596A9142FAD17047004005402E
:102A0000064A536A9942FCD807D1044B02E05A6A3D
:102A1000914202D19A6A9042F9D87047004005402D
:102A2000F8B5DE464E4657464546E0B58B460500AE
:102A30000A991800160000F03BFB0A9B6C001F026D
:102A4000324B64199C46A4006444636881469F42EB
:102A500000D967602B1FDBB29846012B30D9C02309
:102A600080229B01E31812011A60294BAD005959CD
:102A70009A4600291BD17301E026226853401E406C
:102A8000802342465B01E3181E60012A30D980236F
:102A900080229B01E31812011A6053464A46676080
:102AA0005A51F0BCBB46B246A946A046F8BD58698B
:102AB00000F0FEFA013043001B18033BFDD2DAE7B9
:102AC0005B46012BCBD1C02303229B01E3181A6084
:102AD000023AA3681A42FCD07301E0262268AD00D6
:102AE00053401E4080230A4A5B019246E3181E6051
:102AF0005A462168514003220A401A6001225B466F
:102B00009A40A3681A42FCD0C1E7C046008000404A
:102B1000241B0020F0B546464F46D646C0B51F00E0
:102B2000344B44009C462418A400644463688846DF
:102B30001600FF2B02D880235B006360031FDBB20B
:102B40009A46012B30D9C02380229B01E318120141
:102B50001A60294B85005959994600291BD17301E8
:102B6000E026226853401E40802352465B01E31852
:102B70001E60012A30D9802380229B01E3181201B4
:102B80001A6080235B0063604B465F51E0BCBA462D
:102B9000B146A846F0BD586900F08AFA01304300FA
:102BA0001B18033BFDD2DAE74346012BCBD1C023F0
:102BB00003229B01E3181A60023AA3681A42FCD070
:102BC0007301E0262268850053401E4080230A4A94
:102BD0005B019146E3181E60424621685140032282
:102BE0000A401A60012342469340A2681342FCD077
:102BF000C1E7C04600800040241B0020014B80003C
:102C0000C0587047241B0020F8B5040021481E005E
:102C100017000D0000F04CFA0100380000F048FAEF
:102C2000069B36041B031E432368002B20DB1A4B34
:102C30001A49E3185A1E93418022920194465B423E
:102C40001B0B174A1B0363441360164A13601F00D3
:102C50000A689743FBD1144B2560E2182123A0603A
:102C600013602368002BFCDA0823E6601360F8BDCC
:102C70003F2322681340AB42D9D1A3681B051B0D2B
:102C80008342D4D1EE22E368D2021340B342CED1C4
:102C9000EDE7C046001BB7000040FDBF08C0004084
:102CA00000E0004000F000400430000010B5802437
:102CB0001C4BE4051C6000281AD001231A4C184351
:102CC0001A4BDC611A4C44401C62596298628021A4
:102CD000144BC9051960174817490860E021C90459
:102CE0001960002A07D18022144B12061A6010BD09
:102CF0000E4BD861EBE753019B1A9B009A18802377
:102D000012015B049A4209D213000D490B60074B74
:102D10005A608022094BD2051A60E8E7094B1A0075
:102D2000F3E7C04600B00540D3C007B000800540BF
:102D30002D3FF84FFCFF01000820014000A0054096
:102D4000A41F0020FFFFFF008023024A9B000B43CB
:102D5000D362704700800540002310B50100988AB7
:102D60001B8B984710BDC046162310B5010018886C
:102D700002331B88984710BDF8B54746CE4680B54C
:102D80000F1E18D014239946043304000025012691
:102D900098464B461888434621681B88984701C4CB
:102DA000431E984101350640AF42F2D13000C0BC0D
:102DB000B946B046F8BD0126F8E7C046002370B515
:102DC00004000D00988A05491B8B984703000020DA
:102DD000002C01DB0130A04029009847554200003B
:102DE000AA23064A1B0113608D235B00D3600449AC
:102DF000044B19605368002BFCDA70470040024016
:102E000000B0FA00006002407047C04610B50148AB
:102E1000FEF70CFE2085001070B5074D074EB54239
:102E200009D20024013E761BB60808CD984723003E
:102E30000134B342F9D170BDD08200100C83001070
:102E4000054B064A06491A60064A074B1A601000ED
:102E50000B689843FBD1704700E00040BFCDFBFEFC
:102E600008C00040FE7F3C0000F00040044BDB6CDB
:102E7000002B03D18022034BD2021A607047C04658
:102E8000000011504C201150044A054B1A60054AAD
:102E90001368DB018033FBD17047C046FFFFFF01A1
:102EA00000F0004008C000404022034B9A675A6778
:102EB0001A67DA667047C04600F0014010B5FEF7A9
:102EC00051FE10BDF8B52749274C284D641AA610AD
:102ED0003200302E00D930222800920000F08AFD06
:102EE000BC2C3BD830202F232C196407204A801B90
:102EF000E40F9B1B052B16D93700002C02D0B30022
:102F0000771CEA50001B33199B004108EB18C900DD
:102F1000C9181A605A6008339942FAD10123034252
:102F20001CD09843C619B300EA50731C2F2E15D03D
:102F30009B00EA50B31C2E2E10D09B00EA50F31CCD
:102F40002D2E0BD09B00EA50331D2C2E06D09B005B
:102F5000EA50731D2B2E01D09B00EA50054B9D605B
:102F6000F8BDC04600010010C001001000000020A4
:102F7000C101001000ED00E0002310B5294C82B023
:102F8000A367FFF72DFF0122274B1A60636C012B0B
:102F9000FCD10322254B1A60224A936B012BFCD1F2
:102FA000013300930121224A22480433FFF72CFE0B
:102FB000052301210093204A2048FFF725FE002227
:102FC000022104201E4BFFF7A5FD00220121052050
:102FD0001C4BFFF79FFD0022002107201A4BFFF733
:102FE00099FD002200210820174BFFF793FD802355
:102FF000DB000093002200210920134BFFF710FD96
:103000000022104B00210620FFF784FD0420FFF76B
:10301000F5FD0E4900F04CF801000020FFF794FE8A
:1030200002B010BD008000403CB0004030B0004015
:10303000002F685900800240008C864700C0024083
:10304000001BB70040597307006CDC0240420F00C0
:1030500001480421014B184750100020792D001021
:10306000124A936F9B0815D29066D166002905D04D
:10307000FFE7FFE7FFE7516F106F704704B580214E
:103080000906C2175140002800D0C84305F0E8F8EF
:10309000002104BDF0B5146E556E576F166FFFF723
:1030A000E3FF1466556657671667F0BD000000D051
:1030B000114A936F9B0813D210665166002905D000
:1030C000FFE7FFE7FFE7516F106F704704B5002877
:1030D00001D00020C04305F0C3F8002104BDC04664
:1030E000F0B5146E556E576F166FFFF7E5FF146657
:1030F000556657671667F0BD000000D094464A4AEF
:10310000926F9208624601D228E0C046F0B5464E62
:10311000346E756E776F366F00F020F89446424A31
:1031200014665566576716676246F0BD94463E4A78
:10313000926F9208624601D254E0C046F0B53A4E12
:10314000346E756E776F366F00F04CF89446364AE1
:1031500014665566576716676246F0BD002B24DB80
:1031600011D000293EDA00B5C943404200D10131F7
:1031700000F038F8C943404200D10131DB435242EC
:1031800000D1013300BD002AEBD1002801D1002974
:1031900005D00020C90FC90701D1C043410800B5BF
:1031A00005F04EF80022002300BD00B500290ADB1F
:1031B000DB43524200D1013300F014F8C9434042CE
:1031C00000D1013100BDC943404200D10131DB4390
:1031D000524200D1013300F005F8DB43524200D1E6
:1031E000013300BD002923D1002B18D1002A0CD0B7
:1031F000BC460D4F38667A6600210023FFE7FFE7E3
:10320000FFE77A6F386F67467047002801D007489C
:10321000010000B505F014F80022002300BD0200F3
:103220000B00002000217047000000D0FFFFFFFFCF
:10323000002B00D0BFE0130C28D1002AE7D080B4C7
:10324000114F39667A66FFE7FFE730B4040C7B6FF5
:10325000396F1B0423433B667A66FFE7FFE7FFE70E
:10326000C04684B27B6F3D6F1B0423433B667A6686
:10327000FFE7FFE7C04600232C042D0C7A6F386F60
:1032800000196941B0BC7047000000D0F0B5944609
:103290000025140E01D112020835140F01D11201BC
:1032A0000435940F01D192000235D40F01D15200A0
:1032B0000135D40B0134254F7C66254C3C660E0C41
:1032C00093B2FFE7FFE7FFE73C6F6643360C7703F7
:1032D000BE467343DF0B5B04C01AB941130C734342
:1032E000DB18C91ACE086643360CB64493B2734352
:1032F0001F0F1B01C01AB941130C73431F0B1B0591
:10330000C01AB941860D8F023E436643360C092D23
:1033100024DB520A7243801A7703460A6643360C4E
:1033200016235B1BDE40DF40BF1964466643821BE9
:103330007046043506330100D940A840C01900D3B7
:103340000131A24206D20023F0BD0000000000D0EF
:10335000FFFFFFFF121B0130F3D3F1E709277F1BAB
:10336000FE406446A2B27243801A00D20139220C98
:103370007243130C1204821A99410B0070460435F3
:1033800013370100F940A840801900D30131002B08
:1033900002D1A2420AD2F0BD013000D30131121B8A
:1033A000FAD2013BF8D1A24200D2F0BD013000D3E5
:1033B0000131121BF7E7F0B51C0C00D080E00CB413
:1033C00000251C0A04D11B02160E334312020835D5
:1033D0001C0B04D11B01160F3343120104359C0B47
:1033E00004D19B00960F334392000235DC0B02D1CF
:1033F00092185B4101351C00971864410134464F17
:103400007C66464C3C660E0CFFE7FFE7FFE7C046D4
:103410003C6F6643360C7703BE4697B27743C01BBA
:1034200000D20139C01B00D201399FB27743C91BBA
:10343000C91B170C77437E04FF0B801BB941CE08D4
:103440006643360C0C2D33DBB644120B1F053A4392
:103450001B0B97B27743C01B00D201399FB2774351
:10346000C91B170C77433E043F0C801BB941860DE6
:103470008F023E43664329277F1BFE400C3D774663
:10348000AF40BF1930BCA2B2ABB272437343801AD3
:103490009941220C7243130C1204801A99410200C4
:1034A0000B000137001BA941F9D2781E0021F0BDA5
:1034B0000C277F1BFE4077467F0BAF40FF19E0E7EC
:1034C00000245D1C07D0144F7D663966FFE7FFE7D7
:1034D000FFE7FFE73C6F95B29EB265436643401B32
:1034E000B141150C1E0C6543664336042F0C3E4358
:1034F0002D04401BB141994204D202000B00200070
:103500000021F0BD01D19042F7D3801A99410134D6
:103510009942F2D3F6E70000000000D0FFFFFFFF62
:1035200048404140484018B4134B5B68019308BDC4
:1035300018B4114B1B68019308BD94460F4A926F53
:10354000920805D2624618B40B4BDB68019308BDA4
:103550000A4AF0B5146E556E576F166F6246FFF744
:10356000F2FF064A1466556657671667F0BD18B431
:10357000014B9B68019308BD68130020000000D038
:10358000FFB550404240504059404B40594000E048
:10359000FFB5154F4C00640D03D0BC4204D10C03A1
:1035A00014D80020090D09055C00640D03D0BC424D
:1035B00004D11C030AD800221B0D1B0501264B4019
:1035C00009D44B4003D58B4200D18242FFBD9942C2
:1035D000FCD19042FFBD0B43DB1803431343F5D0EE
:1035E000C9434918FFBD0000FF07000000B5FFF701
:1035F000CFFF804100BDC04600B5FFF7C9FF01D92C
:10360000002000BD012000BD00B5FFF7B9FF01D9C2
:10361000002000BD012000BD00B5FFF7B1FF8041D3
:1036200000BD012040054A00121804D85A001218A3
:1036300001D80020704701207047000000210028B9
:1036400005D17047C1174840401AFAD0C90713B5D1
:10365000064B1B6898470CBC441CA2401005120B7B
:103660000349091B09051943114310BD042000201B
:103670001F04000010B54C00620D8023D218DB003F
:10368000D21A5B057E2A10DD9E3A13DACC170903A5
:10369000490819435242D140640001341532202AAE
:1036A00005DAD0400843604310BD002010BD084635
:1036B000604310BDC80FC018013810BD18B4024BCC
:1036C0005B6A019308BD00006813002010B5014833
:1036D000FEF7ACF92C850010132370B51D78012D71
:1036E00019D014DD1D48FFF73FFB06001C48FFF70B
:1036F0003BFB1C4C80223100200000F07BF9022DA6
:1037000006D01948FFF728FB184B186070BD154C00
:10371000174BA364F5E7174B124C23606360A3605B
:10372000E36023616361A361E36123626362A36277
:10373000E36223636363A363E36323646364A36457
:10374000E36423656365A365E36523666366A36637
:10375000E36623676367A367E367D9E75344000021
:1037600053460000681300204C3300000420002062
:1037700079370010CD36001007B5604601880A0A77
:103780000230DF2AFAD1C9B2820804D30288408805
:103790000004104300E00068014A5050039007BD48
:1037A0006813002051434343C9188C46110C83B25F
:1037B0004B4310B4040C614392B280B25043624355
:1037C0001C041B0C001910BC59411304120CC01826
:1037D00051416144704700004840414048400E4B11
:1037E0005B6818470C4B1B6818470C4A936F9B0883
:1037F00002D2094BDB681847F0B5146E556E576F4F
:10380000166FFFF7F6FF054A146655665767166789
:10381000F0BD014B9B68184708200020000000D035
:1038200007B548404140484001E0C04607B5420066
:10383000120E03D0FF2A03D1420218D8C00DC005D2
:103840004A00120E03D0FF2A03D14A020FD8C90D35
:10385000C9050122414005D4414001D5814207BD3F
:10386000884207BD0143491801D0C043001807BD75
:1038700000B5FFF7DBFF804100BDC04600B5FFF794
:10388000CFFF01D9002000BD012000BD00B5FFF72A
:10389000C7FF804100BD491A002807D1084670477C
:1038A000C10FC90700D54042002817D0F44603B421
:1038B0000B4B1B68984706BC81409E3840428031C4
:1038C00007D20B0607D04900490AC0051043084338
:1038D00060470130F8E7490A8902F5E770470000C0
:1038E0000420002041000A0E80231B067E2A0BDDE7
:1038F0009E3A0BDAC1174002400818435242D040AA
:10390000490001314843704700207047C00FC0187C
:1039100001387047C0420DD300B540004008002177
:1039200000F00EF8002801D4404200BD80200006BF
:1039300000BD0000014BDB69184700000820002093
:10394000014B5B6A1847000008200020034A10471B
:103950000029FBD0024B5B6E18470000973800101F
:1039600008200020014BDB6F1847000008200020D2
:1039700010B50148FEF75AF834830010132310B530
:1039800010481C78FFF7F0F90100012C0AD003DD84
:1039900080220D4800F02EF80C48FFF7DDF90C4BA3
:1039A000186010BD084C5422200000F023F82200BB
:1039B000084980322368002B00D1216004349442EE
:1039C000F8D1E9E753460000082000204C330000FE
:1039D000042000207139001001480421014B1847D0
:1039E00060100020792D0010014B1B681847000063
:1039F00060100020014B5B68184700006010002039
:103A00007047C046F8B55746DE464E464546E0B5D7
:103A100099460A9B07009A460D9B884693460B9C45
:103A20009B073BD10C9B9C423DD21E1B0B94150067
:103A30000C005E442A004B46013521002020B84787
:103A4000B542F7D1A0460B9C002C20D04546361934
:103A50005346321B013C185D29004B46B847002CE9
:103A6000F6D12B00350098460D9B9B070FD55B4682
:103A7000EC1A0C9BA3420AD9464698462A004B46AC
:103A8000310020200134B84701354445F6D32800E1
:103A9000F0BCBB46B246A946A046F8BD16001500CC
:103AA000002CD3D1E0E716001500002CCED1EEE7B4
:103AB000F0B54546DE4657464E46E0B585B09C46D5
:103AC00010AB1B78149F934698460F9C129E139D33
:103AD000BB074CD4002D42D1B44248D201233B4015
:103AE00099460E9B013B9A46302304E0524601342E
:103AF0001355A64201D9202CF8D14B46002B00D1FA
:103B000083E00E9B013B99463023A54205D82EE069
:103B10004A4601341355AC4229D0202CF8D1FB067B
:103B20000CD57B0554D4A64263D0A54261D0119B2D
:103B3000102B50D0022B57D0202C32D120230193B0
:103B40000E9B5A460093039763460295FFF75AFF70
:103B500005B0F0BCBB46B246A946A046F0BD012365
:103B60003B40994601233B422AD1B442B9D3FB06DC
:103B70001CD57B05DBD4002CD5D1119B102B5BD041
:103B8000119B022B6BD0302301240E9A13704346F5
:103B9000002B10D17B073ED52B260E9A631C1655A1
:103BA000CDE72300013430260E9AD654202CC5D000
:103BB0004346002BEED02D260E9A631C1655BEE709
:103BC0004346002B2FD0013DB44200D289E798E74D
:103BD000119B102BB2D1BB0637D5202CAED0582369
:103BE0000E9A13550134A7E7202CA7D023000134E7
:103BF00007E0631E012CC0D0119A102A31D0022A8E
:103C0000D1D162260E9AD65496E7FB06CED57B0517
:103C100000D488E78BE723003E0790D520260E9A34
:103C2000013316558BE70C233B405A1E9341ED1A86
:103C3000B44200D255E764E7BB060ED478230E9A4F
:103C40000224137030235370A1E7202C00D175E7B4
:103C500078230E9A135501346EE75823EFE760334B
:103C6000EDE70E9AA61E91464E44BA0602D558229A
:103C7000327098E77822327095E7C04610B5002878
:103C800000D110BD01F07EFCFBE7C0460B0010B573
:103C9000002802D049681B68984710BDF0B5574608
:103CA000DE464E464546E0B595B083460F00924647
:103CB00098461E9A1F9B10001900209EFFF7B1FC2A
:103CC000002800D0EAE11E981F990122C54B5242FC
:103CD000FFF78CFC002800D014E11E981F990122E8
:103CE000C14B5242FFF798FC002800D0E9E01E9833
:103CF0001F990022BD4BFFF78FFC002800D0C8E0C1
:103D00001E981F990022BA4BFFF770FC002800D0C4
:103D1000BFE01E981F9900220023FFF767FC0028D0
:103D200000D0E4E000230B93229B5B0500D4062621
:103D30000024302307E0172106AA01345218135536
:103D4000013E202C01D0092EF5D81E981F99FFF7AF
:103D500091FCA84BF2009B181A685B68050008925A
:103D60000993FFF76FFC02000B001E981F99FFF7E5
:103D7000DAFB089A099BFFF7FAFB06900791FFF719
:103D80009DFC8146FFF75AFC02000B00069807993C
:103D9000FFF7C9FB0022984B06900791FFF73CFC08
:103DA000002800D10DE101239C46E1444846FFF77D
:103DB00045FC02000B0008980999FFF71DFC00283C
:103DC00002D0002399460135002E00D1D9E0069596
:103DD0004D46B94614E006AA944617230A216344C7
:103DE000280001341F19FFF763F9303139702800BA
:103DF0000A21013EFFF75CF9092D00D817E1050003
:103E0000202CE8D14F46069D20240CAE06AA17238D
:103E10009446634499465B46B34606930FE04B468F
:103E200028000A210134E618FFF71AF9303128007A
:103E300031700A21FFF714F9051E00D1E4E0202CAF
:103E4000EDD1069B5E469B460323229A1340012B2D
:103E500018D1219B002B15D00B9B002B00D1FDE02E
:103E6000219B013B2193202B0CD93023219A07E081
:103E7000172006A9013409180B55944200D3CCE051
:103E8000202CF5D1229B01940393219B0096029351
:103E900022E0229B52460493219B3900039358460B
:103EA0001E9B1F9C029600930194434600F04AF922
:103EB0000400200015B0F0BCBB46B246A946A0469F
:103EC000F0BD229B5B070FD403224C4B2299019239
:103ED0000391219900930291434652463900584676
:103EE000FFF790FD0400E4E70422454BEEE71E9A3D
:103EF0001F9B00200021FFF716FB01231E901F913E
:103F00000B9311E7229B54469B0711D1219B042B55
:103F10000ED9219B55469C465E46043C64442A00CB
:103F20004346013539002020B047A542F7D1B346BA
:103F3000344D26002B1F99465B46A3461C003200D9
:103F4000E87843463900013DA04701364D45F6D19A
:103F500023005C469B46229B04349B07A9D553460D
:103F6000219AE31A9A42A4D95E46150022004346DC
:103F700039002020B04753460134E31A9D42F5D85A
:103F800097E72800FFF75EFB02000B001E981F99C1
:103F9000FFF7C9FA0022184B06900791FFF726FB9E
:103FA0000CAE002800D031E7069807990022124B8A
:103FB000FFF732FB002800D028E7012301359D439D
:103FC00024E70022069807990B4BFFF70FFB002808
:103FD00000D0F9E64B46002B5CD101239C46E1441E
:103FE000F2E6C046FFFFEFFFFFFFEF7F65CDCD415B
:103FF00065CDCDC1308800100000E03F94850010F1
:104000008C8500109C850010069B5E469B46032312
:10401000229A1340012B00D181E0202C00D131E7FE
:104020000B9B002B27D02D23335501342AE74F4615
:10403000069D202C00D1E7E63022331907E0172037
:1040400006A9013409180A55202C00D1DCE6A34248
:10405000F5D12E220CAE0134F254D7E60C23229A6D
:10406000134257D0219B013B2193A34200D9FCE688
:10407000202C00D106E7229B5B0703D52B23335569
:104080000134FFE6229B1B0700D4FBE620233355B7
:104090000134F7E6DB0700D496E69EE7229B5546FF
:1040A0009B0711D1219B032B0ED9219B54469C4683
:1040B0005E46033D6544220043460134390020201A
:1040C000B047AC42F7D1B346B9465F461C4EEC1C34
:1040D0002A00B078434649460135B847013EA5421B
:1040E000F6D1229BBB464F469B0700D4E1E65346E0
:1040F000219AE31A9A4200D8DBE65E4615002200B8
:10410000434639002020B04753460134E31A9D420C
:10411000F5D8CEE6219BA34200D9A6E6B2E6219BC4
:10412000002B00D179E70B9B002B97D0219B013B03
:1041300021939C4200D298E6202C00D073E7A1E6A0
:1041400098850010F0B5DE4657464E464546E0B528
:1041500099B081468B4692469846229A239B10003E
:104160001900FFF75EFA002800D0CAE022982399D0
:104170000122824B5242FFF74FFA002800D0C0E0E4
:104180002298239901227E4B5242FFF72FFA0028F2
:1041900000D0B6E02298239900220023FFF726FAE8
:1041A000002800D0C9E1229B239C08930994089819
:1041B00009998023269ADB001A400D928022269CC2
:1041C0001201144022000B94269C07000E001C4292
:1041D00000D0ADE00B00034300D0D5E0002A00D0B2
:1041E0000AE2220006332493022313400C93022395
:1041F000134200D002E2259B042B00D20FE2043BC5
:104200000B93002304250A9300222298239900236C
:10421000FFF7ECF9002800D003E25A4B269A13402E
:1042200004930B9B0393249B0293089B099C00938C
:1042300001945946434652464846FFF72FFD020077
:104240002020269B1F27034059424B415B421840C8
:10425000531C0893594643464530C8470A9AD3171A
:10426000D4185C40D30F0A936B1E0B9308AB9C468B
:104270000025674401E0202D0FD020000A21FEF721
:1042800017FF01357E193031317020000A21FEF709
:104290000FFF26000400092EEDD8052306930B9B83
:1042A00059460593002304930A3303930A9B484617
:1042B000029310AB0093089A43460195FFF7F8FB71
:1042C0000C9B002B2DD05346C41A259BA34228D902
:1042D0004D465F4681461E00534639001A1920207C
:1042E00043460134A847A642F6D853464846259986
:1042F000C21A01320023914200D386E1013018181E
:104300000FE0269B0493259B0393249B0293229BFF
:10431000239C009301944346524659464846FFF772
:10432000BDFC19B0F0BCBB46B246A946A046F0BDE4
:1043300001432BD10B9B2200002B00D154E700231B
:104340000A93249B0A9A0024934200DD85E1229877
:10435000239900220023FFF749F9002800D035E116
:10436000269B084A02941A408023DB0013430493DF
:10437000259B0393089B099CCBE7C046FFFFEF7F7B
:10438000FFFFEFFFFFF7FFFF06232493B44B7000FE
:104390009C46400D6044FFF755F9B24AB24BFFF717
:1043A000E6F8B24AB24BFFF7C3F83603B14B360B0F
:1043B000334304000D00380019000022AE4BFFF714
:1043C000B2F8AE4AAE4BFFF7D2F802000B00200065
:1043D0002900FFF7ADF8FFF74DF90A90FFF732F922
:1043E000A84AA94B04000D00FFF7C1F80022A74B13
:1043F000FFF79EF8FFF73EF9A54A0600A54B2000FF
:104400002900FFF7B4F8040030000D000C96FFF708
:1044100019F9A14AA14BFFF7AAF802000B002000EE
:104420002900FFF780F802000B0006000F00FFF7DD
:104430009EF8320004000D003B0030003900FFF709
:1044400077F800220E900F91954B20002900FFF77E
:1044500074F80022934BFFF76BF802000B0020006A
:104460002900FFF76AF800228F4BFFF761F802007E
:104470000B0020002900FFF760F80D0080210400E8
:1044800032003B000020C905FFF74DF802000B0089
:1044900020002900FFF74CF802000B000E980F993E
:1044A000FFF74BF80022734BFFF742F87F4B0C9C51
:1044B0009C46644400222305FFF759F806000F00CC
:1044C00002000B0008980999FFF790F800280AD01D
:1044D0000A9B3000013B39000A930022714BFFF721
:1044E0002CF806000F000A9A330063323900C62AFE
:1044F00012D802222698042510400B9A0C90002A0C
:1045000025D1259B042B05D9002800D0A1E0259BAF
:10451000043B0B93042541E00222269810400B9A9D
:104520000C90002A12D1259B052B76D9002872D138
:10453000259B0525053B0B9334E08022120694460B
:10454000229B0893239B6344099330E605250B4384
:1045500000D1F6E608980999554A564BFFF754F8EA
:10456000002808D0089809990022534BFFF73EF81D
:10457000002800D0E5E6249B002B1CD00D9B002BCF
:1045800019D0249B013B2493259BAB4204D90C9B5F
:10459000002B5AD002230C9300230B930A9B002B71
:1045A00000D131E60898099932003B00FEF7C5FFBB
:1045B0000890099128E6259BAB42EDD90C9B002B76
:1045C00043D000230B9302330C93E7E78020269B14
:1045D0003A4A00061A40802384460294089C099DAA
:1045E0002900DB0013430493259B614422000393BD
:1045F0000B00009201938EE60524A8E600230B939E
:104600000A93023304250C93FEE553468C46013B86
:1046100063441B1A72E602230C930525C2E70423A8
:10462000EDE58020089E099F000639008446269A01
:10463000224B6144134004930B9B32000393249B51
:1046400002930B0000920193F3E5259B5B1B0B93F8
:10465000A4E7022304250C93A0E79C1A013C76E60C
:1046600001FCFFFFFB799F501344D33FB3C8608B1D
:10467000288AC63F0000F03F0000F83F61436F63A7
:10468000A787D23F71A379094F930A400000E03F0A
:104690001655B5BBB16B0240EF39FAFE422EE63F2C
:1046A00000002C400000244000001840FF030000E0
:1046B0002D431CEBE2361A3F80842E41FFF7FFFFAB
:1046C000F0B5DE4657464E464546E0B5A5B01E005D
:1046D0002E9B92460C93CD4ACD4B80468B461A605A
:1046E000002900D1EAE1002330789946002800D162
:1046F000ECE1C84B4C460B93C74B454657460E93CF
:104700000AE0631C984622003B005946A8474446ED
:104710003078002800D187E001362528F1D1082320
:104720009A46043B9946023B9846013B00229C4630
:104730000D943078711C0300203BDBB2102B03D8A2
:104740000B9C9B00E3589F460300303B89460D9C21
:10475000092B3AD9002398462A2800D1C1E000232A
:104760009A462E284BD00300683BDBB2122B1ED892
:104770000E999B00CB589F4663460E001A43D8E71C
:1047800043460E001A43D4E74B460E001A43D0E7C7
:1047900010230E001A43CCE753460E001A43C8E715
:1047A00080235B001A43FF3B9C467078E1444E46F1
:1047B00067284FD82428A4D90300253BDBB2422B1D
:1047C0009FD896499B00CB589F46002394461E00D5
:1047D00000E00131B3009B195B001E180878303EE1
:1047E0000300303B092BF4D90123624689469C46DD
:1047F0000023B0469A460E00E1442E28B3D1302162
:10480000802049428C46C000024370784B46844465
:104810006146092900D86CE12A2800D17AE10123F8
:104820009C464E46E1449EE7A146A846BA46CA4584
:1048300003D801235B425344994653464A4659469E
:104840000020C047200025B0F0BCBB46B246A946B8
:10485000A046F0BD0300693BDBB20D930F2B00D9DE
:104860004FE7012199408C466D49894661464B4688
:1048700019400F91634649460B4200D028E10D9B39
:104880000A2B3AD0072B00D03BE70C9B190008C934
:104890008846002B00D14BE121200243914614A908
:1048A0008C461F220F2162448C4651460D950C9177
:1048B000A24615000F9902E020290CD0130064468F
:1048C0001C4020003730092C00D8073801316854CB
:1048D0001A090F2BF0D80C9B54460D9D9A460F9148
:1048E00033E10C9B02CB8846002947DB0C93012364
:1048F0009C4670784E46E14431E70C9B02CB149302
:104900005346002B00D138E19C4608780B000C90F0
:104910008C44002801D100F098FC894661469446F9
:1049200003E05A780133002A01D08B42F9D149467D
:1049300062465B1A0C900F93530500D520E10223C9
:10494000180010400D90134200D1CBE30D930B1BC8
:10495000B1469A465E460C9822003B003100A847BB
:1049600053460134185D0028F6D1B3464E460D9BE0
:10497000002B00D0C7E1149B0C93C9E60C930123D4
:104980009C46283849420243884670784E46E144A6
:10499000E5E670786C2800D17FE180235B001A4344
:1049A000FF3B9C46E14402E780239B001A4301231E
:1049B0009C467078E144FAE67078682800D173E18B
:1049C00080231A437F3B9C46E144F0E6672800D1F0
:1049D00003E1472800D15AE1452800D15AE1049269
:1049E000072142460C9B0392073352468B43190022
:1049F00002920CC92800009201930C9122003B0006
:104A00005946FFF79FFB040082E6C046C1460010EE
:104A1000981F002094860010D8860010248700106C
:104A200041900000462800D1DBE004920721424675
:104A30000C9B0392073352468B43190002920CC918
:104A40002800009201930C9122003B005946FFF789
:104A500025F904005CE6631C984622003B00594699
:104A60002520A847444653E60C9B04330D93631C52
:104A70009946920700D422E10C9B220018785946EF
:104A80003B00A84743464444012B00D885E233004D
:104A9000B8462E005F4625004C4699462200434604
:104AA000013439002020B047AC42F7D12C00BB467E
:104AB000350047464E460D9B0C9329E6DB4B30787C
:104AC000984600239946002800D012E60024AEE65E
:104AD0006F2800D188E000D80BE31023782800D19C
:104AE000CFE09A430A239C4600230F930A330D9389
:104AF00080E05646B1008919490001330E18187834
:104B0000303E010030390929F4D9B2461E00013384
:104B1000994628E60C9B023602CB8A46C94350468A
:104B2000C917084082460C933078731C99461AE6E0
:104B3000102310009843113318438146802013003E
:104B4000C0000340024200D1A9E64B460693082369
:104B500005935346049310230393002302930F9B62
:104B6000220001931CAB009359463B002800FEF73E
:104B70009FFF434604000C93CAE501235B42C3E652
:104B80000F9B534501D953460F9302231800104041
:104B90000D90134200D1B7E10D93D1460B1B9A46FD
:104BA0003300A1442E0022004D460C98B9465F46C2
:104BB0009B4608E04B463900541CB0475346185DED
:104BC000002877D022009542F4D15B46BB464F4681
:104BD000A94635004C461E00C9E680231B011A4336
:104BE000FDE620231A4320E708239C4600230F9369
:104BF00008330D9380231100DB0019401A4200D1C5
:104C000016E10D239A431000802302009B001A40F6
:104C10001492184200D0C2E1802302005B001A40C7
:104C200091460C9A04320F92184200D0B7E2430624
:104C300000D59FE1030600D419E30C9B1B88099360
:104C4000002B00D0FCE110339843002900D1F7E19C
:104C50000023994643460593534604930D9B0690C3
:104C600003930023D2E0582808D0622867D102239A
:104C70009C4600230F9302330D93BBE720231A4376
:104C8000103B9C4600230F9310330D93B2E7802313
:104C90001B011A4320231A43A1E6C0239B001A4399
:104CA000F31C9946B07882E5C0231A43F31C994659
:104CB000B0787CE535005E46BB464F4657E6434636
:104CC000012B00D863E1631E43449A463300B94682
:104CD0002E005F4655469B46A24622004B460134B5
:104CE00039002020B047AC42F7D135005E46BB46C4
:104CF0004F46A14654460C9B4A46187859463B00FD
:104D00004444A847D7E6A1460F9B984500D832E611
:104D10004444E41A3300B8462E005F4625004C4652
:104D2000994622004346013439002020B047AC4266
:104D3000F7D12C00BB46350047464E461BE6802384
:104D40001000DB0018401A4200D10FE111211800B9
:104D50008A430D920D9A802311009B0019408C46C6
:104D60001A4269D1802311005B00194089460C99D1
:104D700004310F911A4200D0CAE113005B0600D53E
:104D8000F0E013001B0600D459E20C9B00229B5E4E
:104D9000D9175A184A4092B2D90F0C91002B00D162
:104DA000F9E1100014AA944642461F231492524679
:104DB0006344A84616944D460400B946B2461F0007
:104DC000159201E0202D0FD020000A21FEF770F986
:104DD00001357E193031317020000A21FEF768F963
:104DE00026000400092EEDD8149B4F46A9464546DF
:104DF0009846159B56469A46169C0D9B069343462D
:104E00000593534604930A2303930C9B02934B464A
:104E100001931CAB2200009359463B002800FEF78B
:104E200047FE0F9B04000C9372E4C046013A001049
:104E30000C239A431000E7E607220C9B07339343A9
:104E4000013294469C4462460C920CCBD90F0F91D0
:104E50001100194300D191E0D917139112915140DB
:104E6000109113995940119110981199129A139B0E
:104E7000801A99411090119114AA00239446424639
:104E80009946149252461F336344A846B24616947C
:104E90004E46109C119DB94615921F0001E0202E30
:104EA00010D0200029000A220023FEF73FF9013626
:104EB00030322B00BA550D0022000400002BEED139
:104EC000092AECD8149B1094119545469846159BD9
:104ED0004F46B14656469A46169C0D9B069343464E
:104EE0000593534604930A2303930F9B02934B4667
:104EF00001931CAB2200009359463B002800FEF7AB
:104F0000D7FD0400FFF704FC0F9B984500D8C1E1D2
:104F10008023DB000D9343460F9A1B199B1A994679
:104F200033002E004D46B9465F469B460C91220049
:104F30004B46013439002020B047AC42F7D14346FC
:104F40000C9901330F930B7835000C935E46BB46EA
:104F50004F46002B00D10EE50D9B002B00D1F6E44F
:104F6000002319E60C9B1B781A0015E710239A43BF
:104F70000D92EFE60C9B1B78099361E6002399469E
:104F80000028AAD1002200231092119374E70C9BF1
:104F90002200187859463B00A8474C468BE50C9AEE
:104FA000FA3BFF3B07329A430133994691444B4603
:104FB0000C931368526815921A4306D1103290432D
:104FC00000220992002900D081E06122810600D5EB
:104FD0004122D2B20A9214AA91460A9A00210A3AB0
:104FE000149242461792524618925A460991B34675
:104FF0001F311E000F9B4944BA4619941A9500248C
:10500000674698468946159D16901B920AE03032F5
:10501000D2B24B4601341A55A8454AD0202C4AD06A
:1050200006000D003A00002330002900FEF77EF84C
:10503000D2B2092AEBD9149B9C466244D2B2E8E76B
:105040006123820600D54123DBB20A3B0C93434621
:1050500014A91F228C46159353466244A046B246BB
:105060004C461797A9461700099D0D9E149016935C
:1050700008E03033DBB201343B55B5420ED3202C6F
:105080000CD0050031002800FEF712F8CBB2092938
:10509000EFD90C9A94466344DBB2ECE7159B4D467E
:1050A000A14644469846169B564614989A46179F22
:1050B000D0E5B742B2D9179B57469846189B5E4633
:1050C0009A461B9B09949B461698199C1A9D434629
:1050D0000593534604930D9B06900393002302937C
:1050E000099B05E70F9B984500D914E701330F93FF
:1050F0002DE41023110099430D91692800D0BAE0E6
:1051000080231000DB0018401A4200D122E61DE681
:105110000C9B1B68DA0F1100002B00D18CE0DA1712
:105120009818504014AA914642461F2314925246A2
:105130004B44A046A946169704006546B2461F0098
:105140000C91159201E0202D0FD020000A21FDF7CF
:10515000AFFF01357E193031317020000A21FDF793
:10516000A7FF26000400092EEDD8149B444698465C
:105170000C9BAC461900159B56464D469A46169F09
:105180000D9B0291069343460593534604930A23CD
:10519000039363463CE6002800D02EE602E60C9B13
:1051A0001B689946002B03D110339843002938D14E
:1051B0006123820600D54123DBB20A3B0C934346B0
:1051C0001693534614A91F228C4617932B00624452
:1051D000A0464D46B246189799461700149C0D9E5E
:1051E000159008E03033DBB201343B55B5420ED3A5
:1051F000202C0CD0050031002800FDF759FFCBB260
:105200000929EFD90C9A94466344DBB2ECE7169B6C
:10521000149444469846179B56464D469A46159810
:10522000189F43460593534604930D9B06900393A2
:1052300000230293149BEBE50028A1D172E70C9B9D
:105240001B68D9175A184A40A6E580231000DB00D6
:1052500018409C460F901A420FD0022003001340C2
:105260000F93104219D00023A1460F934CE50C9BDD
:105270001B680993E4E40A0034E402231800104098
:105280000D90134200D03EE54346002B00D042E68D
:10529000FFF771FB01330F937FE463460D93F3E750
:1052A00010B50C0084B00394012402A9029000936D
:1052B000034813006242FFF703FA04B010BDC04672
:1052C0008D3C001010B5094A0300146884B0002C0E
:1052D00008D0012200910648524203A9A0470120AC
:1052E00004B010BD00F098F90020F9E7981F0020E5
:1052F0007D3C001000BEFDE710B5FFF7FBFFC04688
:1053000070B5FDF789FD074D074EB54209D200245F
:10531000013E761BB60808CD984723000134B342FE
:10532000F9D170BD0C83001014830010030010B578
:10533000080011001B68984710BDC046F0B5C6466E
:1053400000B5437D07000C001600002B46D0002A54
:1053500017DD0B780A2B24D000239846012E13D09A
:1053600001252900635C01350A2B26D0B542F8D10E
:10537000464509DCA419013C23780D3B5A425341B0
:105380003B7580BCB846F0BD4346E018A419F11A3D
:10539000013C3B68984723780D3B5A4253413B758B
:1053A000EFE7037D002BD7D102210F483B689847D8
:1053B000012EDFD001239846D2E7631E5B5C0D2BE4
:1053C000D4D0884504DA4346C91AE0183B689847A8
:1053D000022105483B68A8469847C7E703681100C3
:1053E00020009847CDE7C04680880010F0B5C6463B
:1053F0000B6806000C0000B5802B06D05A1C2260FA
:10540000E418267180BCB846F0BD0F4B1D68002D16
:1054100016D00B1D98460D4F02E02D69002D0FD0C0
:105420002B68002BF9D03B68002B01D0AB42F4D1A4
:10543000280041462268FFF781FF2D69002DEFD13A
:1054400001220023DBE7C046781B0020901B0020D0
:10545000F0B54546DE464E465746E0B583B0914628
:105460001C0080460D00FDF7C1FA0023304A1218D7
:105470004B41002B02DA01222E4B52422E490800EA
:105480008A4602F00DFF07006B1C03D1404602F074
:105490008DFE0500002C27D0284E294B1C68002CBF
:1054A00018D04B46002B21D1264B994602E02469A7
:1054B000002C0FD02368002BF9D04B461B68002B23
:1054C00001D09C42F3D120002A004146B047246914
:1054D000002CEFD1002F26D1280003B0F0BCBB4632
:1054E000B246A946A046F0BD174ED6E7154B9946E1
:1054F0000A239B4602E02469002CEBD02368002B92
:10550000F9D04B461B68002B01D0A342F3D12A00EF
:1055100041462000B0476B465A462000DA71D91D3B
:105520000122B047E7E7504602F07AFED4E7C046D2
:1055300040420F00FFFFFF7FB01000203D530010DE
:10554000781B0020901B00202D5300100A4A13687E
:10555000002B05D10CE01A001B691032002B07D07C
:105560008342F8D1002902D118691060196170478F
:105570000029FCD01060FAE7781B002010B500F07D
:10558000F1FA10BDF0B5CE46474680B583B06B4604
:105590000600DD1D2870FDF729FA0023194A1218AC
:1055A0004B41002B02DA0122174B524217490800E7
:1055B000884602F075FE164B81461C68002C14D0FC
:1055C000144F02E02469002C0FD02368002BF9D07F
:1055D0003B68002B01D09C42F4D12000012229001D
:1055E000FFF7ACFE2469002CEFD14B46002B05D110
:1055F000300003B0C0BCB946B046F0BD404602F032
:105600000FFEF5E740420F00FFFFFF7FB0100020C4
:10561000781B0020901B002070B5040002F0C6FD2E
:1056200001230100050001222000FFF711FF084BB4
:105630001C68002C06D06368002B05D098472469AD
:10564000002CF8D1280070BD2469002CF3D1F9E7B3
:10565000781B0020F0B5CE46474680B5A3B00400C5
:105660000D00FDF7C3F90023274A12184B41002B08
:1056700002DA0122254B5242254E300002F010FE84
:1056800000232200019307002B00224801A9FFF705
:1056900007FE214B804699461C68019B002B1AD0BF
:1056A000002C2FD01D4D02E02469002C0FD0236860
:1056B000002BF9D02B68002B01D0A342F4D120009D
:1056C000019A02A9FFF73AFE2469002CEFD14B465C
:1056D0001C6800230193002C06D06368002B0BD0BC
:1056E00098472469002CF8D1002F07D1404623B0F9
:1056F000C0BCB946B046F0BD2469ECE7300002F00A
:105700008FFDF3E70194EFE740420F00FFFFFF7FBB
:10571000B0100020ED530010781B0020901B0020DB
:105720000FB400B583B004A901C90191FFF792FF3E
:1057300003B008BC04B018477047C0460022014BB4
:105740001A707047302100204B790020FF2B0BD1BD
:105750008B79002B08D1CB79012B05D1082A03D9ED
:10576000024B8A7809301A707047C04630210020F9
:105770000120704710B5012913D1124953791079CE
:1057800009781B0203430020994200D010BD5378D2
:10579000012B08D0022BF9D1642200210020FDF753
:1057A00085FA0120F2E7D37891781B021943480A61
:1057B000DB0501D4012040427F238A05D20F194026
:1057C000FDF7FCFA30210020004870474C8900109A
:1057D00070B5050014000120012909D1537800207B
:1057E000012B05D1637912791B021343072B00D0DB
:1057F00070BD21002800024A9F3301F055FAF7E7F7
:10580000A4880010012303700048704784880010AA
:105810004B780A781B0213438A7810B512041A4396
:10582000CB781B0613439622D200934200D010BDC2
:105830000022012011004042FDF7C0FA024B18601F
:10584000024B19607047C046141B0020181B002033
:1058500010B5024B1878FCF7C3F910BD31210020B8
:10586000154B70B51A68002A22D0EFF3108172B67A
:1058700010680028FCD0BFF35F8F00200F4A5960EA
:1058800010701B68BFF35F8F186081F310880024CD
:1058900000250B4E3078FCF797F9002804D100243E
:1058A00000252900200070BD3078FCF799F9F8E751
:1058B000FA240025A400ECE7D41F002032210020A8
:1058C0003121002070B5040000200E0001F00AFB19
:1058D000002834D0002001F01BFB00282FD0FDF75A
:1058E00085F80023174A12184B41002B16DB164D82
:1058F000280002F0D5FC002821D0002001F0F2FAA7
:1059000000280FD101200021404200F001FD0324B6
:105910006442280002F084FC200070BD01220B4B81
:105920005242E4E7002001F0F3FA0028EAD0210017
:105930003200002001F0F6FA041EEAD1E7E7032462
:105940006442E9E740420F000C210020FFFFFF7F87
:1059500010B5FDF74BF800230D4A12184B41002BF0
:1059600002DA01220B4B52420B4C200002F098FC51
:1059700000280CD001200021404200F0C9FC00208A
:1059800001F014FB0028F5D1200002F049FC10BD05
:1059900040420F00FFFFFF7F0C210020F8B5DE46DC
:1059A000574680B505000C00FDF720F80023364A65
:1059B00012184B41002B02DA0122344B5242344977
:1059C00008008A4602F06CFC002803D1C0BCBB462C
:1059D000B246F8BD002001F085FA00284AD0002622
:1059E000002C43DD2B4B9B4614E0A919002001F04D
:1059F00017FB070001200021404200F089FC002035
:105A000001F0D4FAFCF7F2FF224BF6191860596046
:105A1000B4422BDD002001F023FBA71B0200B8429B
:105A200000DD3A00002AE0D101200021404200F0D0
:105A30006FFC002001F0BAFA002001F053FA0028B0
:105A400014D0002001F00CFB0028E1D1FCF7CEFFC0
:105A50005B460F001A685B68002184460E481218E6
:105A60004B419F4202D8D3D19445D1D9504602F040
:105A7000D7FBABE700200021064B18605960504669
:105A800002F0CEFBA2E7C04640420F00FFFFFF7FBF
:105A90000C2100205813002020A1070030B52A4C0B
:105AA00085B00021200002F0E3FB00281CD1274B29
:105AB0001A68002A16D0EFF3108172B61068002819
:105AC000FCD0BFF35F8F01242148596002781B6826
:105AD000D2B20470BFF35F8F0020186081F310888A
